:020000040800F2
:10000000A0ED0120652E0008190300081B0300085D
:1000100033030008370300083B030008000000001A
:100020000000000000000000000000003F03000886
:1000300041030008000000004303000845030008D6
:100040007F2E00087F2E00087F2E00087F2E0008DC
:100050007F2E00087F2E00087F2E00087F2E0008CC
:100060007F2E00087F2E00087F2E00087F2E0008BC
:100070007F2E00087F2E00087F2E00087F2E0008AC
:100080007F2E00087F2E00087F2E00087F2E00089C
:100090007F2E00087F2E00087F2E00087F2E00088C
:1000A0007F2E00087F2E00087F2E00087F2E00087C
:1000B0007F2E00087F2E00087F2E00087F2E00086C
:1000C0007F2E00087F2E00087F2E00087F2E00085C
:1000D0007F2E00087F2E00087F2E00087F2E00084C
:1000E0007F2E00087F2E00087F2E00087F2E00083C
:1000F0007F2E00087F2E00087F2E00087F2E00082C
:100100007F2E00087F2E00087F2E00087F2E00081B
:100110007F2E00087F2E00087F2E0008A72D0008E4
:100120007F2E00087F2E00087F2E00087F2E0008FB
:100130007F2E00087F2E00087F2E00087F2E0008EB
:100140007F2E00087F2E00087F2E00087F2E0008DB
:100150007F2E00087F2E00087F2E00087F2E0008CB
:100160007F2E00087F2E00087F2E00087F2E0008BB
:100170007F2E00087F2E00087F2E00087F2E0008AB
:100180007F2E00087F2E0008DFF810D004F06CFCF2
:1001900000480047A1010008AFF30080A0ED012056
:1001A00008B5A82002F0B2FA00F0DAF900F085FAFA
:1001B00002F022FE02F06CFD02F0EFFD0020A02311
:1001C00080220146009000F067FB48480068C04369
:1001D0004749C1F8A00200F0CEFD01F056FE02F042
:1001E00052FD002541E0284600F078FE00241AE088
:1001F000204601F055FD01F0D3FE3E4802F002FC1E
:1002000002F0DEFC01F00FFF3B4802F01DFC01F0A4
:10021000C7FF02F0CDF82146284601F0B1F920468B
:1002200000F0A3FE641CB4F5DA7FE1DB334802F092
:1002300030FB02F046FC324802F0A7FB02F096FCCD
:10024000304802F065FB02F067FC2F4802F045FBE6
:1002500002F04DFC2D4802F0BAFB02F09CFC2C4849
:1002600002F078FB02F06DFC6D1C642DBBDB0024FA
:1002700025E004F1640000F031FE00251BE0284673
:1002800001F00EFD01F08CFE1A4802F0BBFB02F0FB
:1002900097FC01F0C8FE184802F0D6FB02F0A6FC5D
:1002A00002F086F8294604F1640001F069F9284655
:1002B00000F05BFE6D1CB5F5DA7FE0DB641C1E2CE4
:1002C000D7DB00240CE0204601F07BFD02F044F96E
:1002D000104802F0DBFB02F0C1FC02F074F9641C70
:1002E000B4F55A6FEFDB00BFFEE70000A00240420A
:1002F000000040428C5201208C6A01204C000020FA
:100300000C7301201C9601204C4A01200C94012002
:100310001CB701208C720120704709E00A48006870
:10032000C0430A49C1F8A0024FF4FA7002F050FA33
:10033000F4E700BFFEE700BFFEE700BFFEE770473F
:100340007047704770470000A002404200004042E2
:100350000CB50020019000907648006840F4803091
:100360007449086000BF7348006800F400300090D2
:100370000198401C0190009818B90198B0F5A04F61
:10038000F1D16C48006800F4003010B101200090F9
:1003900001E0002000900098012846D165484030D7
:1003A000006840F08050634940310860624800684E
:1003B00040F44040604908605E48083000685D498C
:1003C000083108600846006840F4004008600846AC
:1003D000006840F4A05008605848091F0860081FD2
:1003E000006840F08070091F086000BF5148006835
:1003F00000F000700028F9D040F205705049086004
:100400004C480830006820F003004A490831086071
:100410000846006840F00200086000BF4548083008
:10042000006800F00C000828F8D10CBD10B5454854
:10043000006840F47000434908603E48006840F09E
:1004400001003C49086000203A49083108603948F9
:1004500000683D490840374908603C48091D08606C
:10046000081F006820F48020091F0860002031491F
:100470000C310860FFF76CFF4FF0006031498039A4
:10048000086010BD70B50020002202230024022164
:10049000284D08352D6805F00C0020B1042806D041
:1004A000082834D107E02A4D2A4E356033E02A4D22
:1004B000284E35602FE01F4D2D1D2D68C5F380544B
:1004C0001C4D2D1D2D6805F03F0154B1224DB5FB8B
:1004D000F1F5184E361D3668C6F3881605FB06F290
:1004E00009E01B4DB5FBF1F5124E361D3668C6F31B
:1004F000881605FB06F20F4D2D1D2D68C5F301452D
:100500006D1C6B00B2FBF3F5124E356003E0104D2D
:10051000104E356000BF00BF064D08352D68C5F38D
:1005200003150E4E705D0B4D2D68C540094E3560AC
:1005300070BD0000003802400070004008544007C1
:10054000003C024088ED00E0FFFFF6FE1030002482
:100550000024F4000000002000127A0004000020B3
:100560001CB50121084603F023F84FF48070009079
:1005700001208DF8040000208DF8060003208DF87E
:10058000050001208DF807006946034802F072FD5E
:100590000120024908601CBD00000240A002404248
:1005A0001CB50121022003F003F84FF46C70009099
:1005B00001208DF8040000208DF8060003208DF83E
:1005C000050001208DF807006946B24802F052FD8F
:1005D0004020009000208DF8040003208DF80500D5
:1005E00001208DF807006946AA4802F043FD1CBDB2
:1005F00070B504468021A74802F0BAFD00251BE033
:100600004FF48071A34802F0B3FD04F0800028B1DC
:100610004FF400719F4802F0A9FD04E04FF400710F
:100620009C4802F0A5FD4FF480719A4802F09EFDAF
:100630006006040E681CC5B2082DE1DB80219548D8
:1006400002F094FD70BD10B504462046FFF7D0FFC0
:1006500010BD10B504462012FFF7CAFFE0B2FFF745
:10066000C7FF10BD10B5044620218A4802F080FD66
:100670002046FFF7BDFF2021864802F077FD10BD20
:100680002DE9F04107460C4615461E462A20FFF785
:10069000E9FF3846FFF7DDFF2846FFF7DAFF2B209A
:1006A000FFF7E0FF2046FFF7D4FF3046FFF7D1FF0A
:1006B0002C20FFF7D7FFBDE8F08110B5FFF770FFE2
:1006C0001021744802F052FD642002F081F81120DC
:1006D000FFF7C8FF782002F07BF8B120FFF7C2FFD8
:1006E0000520FFF7B0FF3C20FFF7ADFF3C20FFF7F0
:1006F000AAFFB220FFF7B6FF0520FFF7A4FF3C20BA
:10070000FFF7A1FF3C20FFF79EFFB320FFF7AAFFF2
:100710000520FFF798FF3C20FFF795FF3C20FFF7EF
:1007200092FF0520FFF78FFF3C20FFF78CFF3C2056
:10073000FFF789FFB420FFF795FF0320FFF783FF42
:10074000C020FFF78FFF2820FFF77DFF0820FFF76D
:100750007AFF0420FFF777FFC120FFF783FFC02057
:10076000FFF771FFC220FFF77DFF0D20FFF76BFF42
:100770000020FFF768FFC320FFF774FF8D20FFF70D
:1007800062FF2A20FFF75FFFC420FFF76BFF8D2079
:10079000FFF759FFEE20FFF756FFC520FFF762FF76
:1007A0001A20FFF750FF3620FFF75CFFC020FFF74D
:1007B0004AFFE020FFF756FF0420FFF744FF222006
:1007C000FFF741FF0720FFF73EFF0A20FFF73BFF3F
:1007D0002E20FFF738FF3020FFF735FF2520FFF7E9
:1007E00032FF2A20FFF72FFF2820FFF72CFF2620BB
:1007F000FFF729FF2E20FFF726FF3A20FFF723FF00
:100800000020FFF720FF0120FFF71DFF0320FFF767
:100810001AFF1320FFF717FFE120FFF723FF042043
:10082000FFF711FF1620FFF70EFF0620FFF70BFF63
:100830000D20FFF708FF2D20FFF705FF2620FFF70B
:1008400002FF2320FFF7FFFE2720FFF7FCFE2720F3
:10085000FFF7F9FE2520FFF7F6FE2D20FFF7F3FE48
:100860003B20FFF7F0FE0020FFF7EDFE0120FFF731
:10087000EAFE0420FFF7E7FE1320FFF7E4FE3A202C
:10088000FFF7F0FE0520FFF7DEFE2920FFF7EAFE66
:1008900010BD0000000402402DE9F04706460F4657
:1008A00014461D46DDF820A0681E83B2601E82B289
:1008B00039463046FFF7E4FEB8460EE0B14606E0A2
:1008C0005046FFF7C6FE09F101001FFA80F9A14565
:1008D000F6DB08F101001FFA80F8A845EEDBBDE861
:1008E000F08770B504460D4616462B46224629462B
:1008F0002046FFF7C5FE3046FFF7ABFE70BD2DE981
:10090000FF4F85B081468A460020039083460798B2
:10091000A0EB09050898A0EB0A06CDF80890CDF8E1
:1009200004A0002D01DD012705E00DB9002702E03C
:100930004FF0FF376D42002E02DD4FF0010806E058
:1009400016B94FF0000802E04FF0FF387642B5428A
:1009500001DD2C4600E03446002004901EE0019AA0
:1009600091B2029A90B2129AFFF7BBFF0398284403
:100970000390B3440398A04205DD0398001B039045
:10098000029838440290A34504DDABEB040B0198B8
:10099000404401900498401C80B20490611C04986B
:1009A0008842DCDB09B0BDE8F08F2DE9F84305464D
:1009B0000E4617469846089C33463A463146284626
:1009C0000094FFF79CFF43462A4631462846009490
:1009D000FFF795FF43463A46414628460094FFF705
:1009E0008EFF43463A46314638460094FFF787FF6C
:1009F000BDE8F8832DE9F04706460F469046994634
:100A00000025444641E07A1B91B2321B90B24A461F
:100A1000FFF767FF7A1B91B2321990B24A46FFF78F
:100A200060FF3A1991B2721B90B24A46FFF759FF24
:100A30003A1B91B2721B90B24A46FFF752FF7A19E5
:100A400091B2321990B24A46FFF74BFF3A1B91B26E
:100A5000721990B24A46FFF744FF3A1991B27219DF
:100A600090B24A46FFF73DFF7A1991B2321B90B21D
:100A70004A46FFF736FF6D1C05FB05F004FB040139
:100A800008FB08F0814200DD641EA542BBDDBDE825
:100A9000F0872DE9FF5F80468A4617469B460F9DEB
:100AA00000200290CDF80080284605EBD071C1F3FC
:100AB00047042046E21704EB5272D2102146E31796
:100AC00004EB5373DB10A4EBC3030BB1012300E071
:100AD00000231A446A4392B20192A7F12000C7B2E0
:100AE0000AEB0500401E83B208EB0400401E82B2F0
:100AF00051464046FFF7C4FD002669E00C2D07D1A2
:100B000007EB4700FE4901EB8000805D03901BE08E
:100B1000102D05D1FB4800EB0710805D039013E01A
:100B2000182D07D107EB4700F74901EB0010805D56
:100B3000039009E0202D05D1F44800EB8710805D7B
:100B4000039001E0BDE8FF9F4FF000093AE01098E4
:100B5000C8B9012000FA09F00399084018B15846B5
:100B6000FFF777FD02E00E98FFF773FD0298401C37
:100B7000C0B20290029890FBF4F104FB1100E8B9B6
:100B80000020029021E0012000FA09F003990840BA
:100B900020B15A4651464046FFF7A3FE08F1010036
:100BA0001FFA80F80098A8EB0000A04206D1DDF8FB
:100BB00000800AF101001FFA80FA06E009F1010045
:100BC00000F0FF09B9F1080FC1DB00BF701C86B24D
:100BD0000198864292DB00BFB4E72DE9FE4F06463E
:100BE0000F4614469846DDE90D5ADDF8309010E0C6
:100BF000CDE9015ACDF80090227843463946304677
:100C0000FFF747FF284605EBD07106EB61018EB276
:100C1000641C20780028EBD1BDE8FE8F10B5024699
:100C2000012000E050430B1EA1F10104E1B2F9D113
:100C300010BD2DE9FF4F85B0074691461D46DDE901
:100C400013A600200490304606EBD071C1F3470B89
:100C5000002434E0281B401EC1B20A20FFF7DEFF4B
:100C6000B9FBF0F00A21B0FBF1F201FB1208049885
:100C7000A0B9681EA04211DDB8F1000F0CD1002010
:100C800004FB0B71CDE900A6029088B22022129BD2
:100C90000699FFF7FEFE10E001200490002008F105
:100CA0003001CAB204FB0B71CDE900A6029088B2F4
:100CB000129B0699FFF7EDFE00BF601CC4B2AC4268
:100CC000C8DB09B0BDE8F08F2DE9FF4F2DED020B19
:100CD0002DED028B83B00746B0EE408A1446DDE965
:100CE0001486304606EBD071C1F3470A9FED880A9F
:100CF00028EE000ABCEEC00A10EE100A1FFA80FBB4
:100D0000002530E0601B401EC1B20A20FFF786FFBD
:100D1000BBFBF0F00A21B0FBF1F201FB1209A01EAF
:100D2000A84210D10020A11E01FB0A71CDE9008666
:100D3000029088B22E220A9B0899FFF7AAFE681C2F
:100D4000C5B2601CC4B2002009F13001CAB205FB73
:100D50000A71CDE90086029088B20A9B0899FFF7D4
:100D600098FE681CC5B2A542CCDB03B0BDEC028B7B
:100D700006B0BDE8F08F2DE9FF5F4FF4C870039017
:100D8000C8244FF49675642618274FF00C084FF0CE
:100D900000094FF0060A4FF0120B0020A02380221A
:100DA00001460090FFF778FD4CF2186094237A22F8
:100DB000352100901220FFF7F8FD0C2000214CF2A5
:100DC00018620323CDE900210290324675210020EC
:100DD000FFF72FFF0C2000214CF218620323CDE90E
:100DE000002102902A4643210020FFF722FF0C2019
:100DF00000214CF218620323CDE900210290224623
:100E00005C210020FFF715FF0C2000214CF2186236
:100E10000123CDE9002102904A469621FFF709FF00
:100E20000C2000214CF218620123CDE90021029030
:100E3000524696212A20FFF7FCFE0C2000214CF29E
:100E400018620223CDE900210290424696214420F7
:100E5000FFF7EFFE0C2000214CF218620223CDE9CF
:100E6000002102905A4696215C20FFF7E2FE0C20FA
:100E700000214CF218620223CDE9002102903A468B
:100E800096217520FFF7D5FE4FF478403F235F226F
:100E9000194600905020FFF732FD00200C21CDE9CB
:100EA00000011F231BA2392102903220FFF795FE7B
:100EB0001F203F232D22194600901E20FFF71FFD03
:100EC00000200C21CDE900014FF4784312A2392112
:100ED00002906420FFF781FEBDE8FF9F10B586B049
:100EE000044600200C23802201460090FFF7D4FC2A
:100EF00000200C21CDE900014FF6E07307A211E0BC
:100F000052530008C6570008B65D0008866F0008F7
:100F10000000C8425000000054000000526F756E7F
:100F20006420000001460290FFF757FE2246FAA116
:100F300003A803F0ABFD00200C21CDE900014FF622
:100F4000E07303AA014602902420FFF746FE00202A
:100F50000C21CDE900014FF6E073F0A201460290AA
:100F60003620FFF73AFE06B010BD10B586B0044635
:100F70000020182380220C210090FFF78DFC002018
:100F80000C21CDE900014FF6E073E7A20290FFF7D4
:100F900024FE2246E0A103A803F078FD00200C21E6
:100FA000CDE900014FF6E07303AA02902420FFF779
:100FB00014FE00200C21CDE900014FF6E073DCA205
:100FC00002903620FFF709FE00200C21CDE9000138
:100FD0004FF6E073D9A218210290FFF7FEFD06B08C
:100FE00010BD70B58CB004460D460A2095FBF0F09C
:100FF000D549096801EB4102C2EBC11100EBC10602
:1010000000202423802218210090FFF745FC0020B7
:101010000C21CDE900014FF6FF73CCA218210290FC
:10102000FFF7DBFD2246BCA109A803F02FFD00203D
:101030000C21CDE900014FF6FF7309AA1821029097
:101040002420FFF7CAFD00200C21CDE900014FF656
:10105000FF73C0A2182102903620FFF7BEFD324672
:10106000ADA104A803F012FD00200C21CDE9000180
:101070004FF6FF7304AA182102904220FFF7ADFD3E
:1010800000200C21CDE900014FF6FF73B2A2182118
:1010900002906620FFF7A1FD0020AB4908600CB06C
:1010A00070BD70B58CB00020089009900A900B902C
:1010B000049005900690079030237E220146009010
:1010C000FFF7EAFB002093237A22452100901320AA
:1010D000FFF7E2FB4CF2186049237A221946009090
:1010E0001320FFF70CFC4CF2186062237A22194699
:1010F00000901320FFF703FC4CF218607B237A2248
:10110000194600901320FFF7FAFB4CF21860942365
:101110002D22492100901046FFF7F1FB4CF2186098
:1011200094234722492100901046FFF7E8FB4CF238
:10113000186094236122492100901046FFF7DFFBDD
:1011400000200C21CDE900014FF6E07383A2014697
:101150000290FFF742FD00200C21CDE900014FF67F
:10116000E07380A218210290FFF737FD002020E0F5
:101170007E4901EB800191ED000AF1EE000A80EE5C
:10118000201ABDEEC10A10EE101A04AA42F820106F
:10119000774901EB800191ED000AF1EE000A80EE43
:1011A000201ABDEEC10A10EE101A08AA42F820104B
:1011B000401C0428DCDB002434E004A850F82400A0
:1011C00001282EDD1F2008AE651C009056F8255022
:1011D000C5F19405ABB2A5001C35AAB208AD55F80F
:1011E0002450C5F19405A9B2A5001835A8B2FFF79F
:1011F00086FB4FF4784004AE651C009056F82550ED
:10120000C5F19405ABB2A5001C35AAB204AD55F8E2
:101210002450C5F19405A9B2A5001835A8B2FFF76E
:101220006EFB641C032CC8DB00241AE1022C72DA6A
:10123000504800EB840090ED000A5FEDCB0AB4EE5D
:10124000E00AF1EE10FA16D20C200021CDE90010D0
:10125000484901EB8401D1ED000AB0EE600A04EBCD
:101260008401C900283188B24FF6E07304220021BE
:10127000FFF72AFD15E00C200021CDE900103D49C3
:1012800001EB8401D1ED000AB0EE600A04EB8401A9
:10129000C900283188B24FF6E07305220021FFF71C
:1012A00013FD354800EB840090ED000A5FEDE80A7D
:1012B000B4EEE00AF1EE10FA16D20C200021CDE9CE
:1012C00000102D4901EB8401D1ED000AB0EE600A57
:1012D00004EB8401C900283188B24FF6E073042280
:1012E0001821FFF7F1FCBBE00C200021CDE9001034
:1012F000214901EB8401D1ED000AB0EE600A04EB54
:101300008401C900283188B24FF6E0730522182104
:10131000FFF7DAFCA4E031E025640000205472619C
:10132000696E696E670000004261746368200000A6
:1013300020436F6D706C65746564000054696D6561
:101340002055736167653A003000002045706F6377
:10135000682000003A0000006D7300005072656460
:101360003A000000547275653A000000DCE8012084
:101370003CE90120FCCF01200CD00120714800EB9A
:10138000840090ED000ADFED700AB4EEE00AF1EEA1
:1013900010FA16D20C200021CDE90010694901EBAA
:1013A0008401D1ED000AB0EE600A04EB8401C900AB
:1013B000283988B24FF6E07304220C21FFF784FC31
:1013C00015E00C200021CDE900105E4901EB8401FD
:1013D000D1ED000AB0EE600A04EB8401C90028399F
:1013E00088B24FF6E07305220C21FFF76DFC5748D9
:1013F00000EB840090ED000ADFED530AB4EEE00A42
:10140000F1EE10FA16D20C200021CDE900104F4960
:1014100001EB8401D1ED000AB0EE600A04EB840117
:10142000C900283988B24FF6E07304222421FFF75F
:101430004BFC15E00C200021CDE90010434901EBE5
:101440008401D1ED000AB0EE600A04EB8401C9000A
:10145000283988B24FF6E07305222421FFF734FCC7
:10146000641C042CFFF6E2AE0CB070BD0EB500207B
:101470003023802201460090FFF70EFA00200C2155
:10148000CDE900014FF6FF7331A201460290FFF74C
:10149000A4FB00200C21CDE900014FF6FF732EA222
:1014A0000290FFF79AFB00200C21CDE900014FF6D6
:1014B000FF732BA218210290FFF78FFB00200C2155
:1014C000CDE900014FF6FF7327A224210290FFF718
:1014D00084FB0C2000214FF6FF730622CDE900109B
:1014E000234890ED000A1E20FFF7EEFB0C200021A0
:1014F0004FF6FF730622CDE900101E4890ED000A5A
:101500000C211E20FFF7E0FB0C2000214FF6FF739B
:101510000622CDE90010184890ED000A18211E207F
:10152000FFF7D2FB0C2000214FF6FF730622CDE916
:101530000010124890ED000A24211E20FFF7C4FB82
:101540000EBD0000FCCF01200000C8420CD00120DD
:101550004D53453A00000000524D53453A000000FB
:101560004D41453A000000004D4150453A00000011
:101570001C00002020000020240000202800002063
:101580002DE9F0412DED048B06460F464FF4DA703D
:1015900000FB0670401C08EE100A9FEDFE0AB0EE3C
:1015A000409A9FEDFC0AF0EE409AB7EE000AF0EE8A
:1015B000408A002412E1002590E09FEDF70A38EE02
:1015C000C00A04EB8500F54901EB8000D0ED000A6C
:1015D00020EE200A04EB8500F14901EB8000D0EDFC
:1015E000000A9FEDED1A01EE200A04EB850001EBE5
:1015F000800080ED000A9FEDEB0A38EEC00A04EB94
:101600008500E64901EB8000D0ED000A20EE200ABB
:1016100004EB850001EB8000D0ED000A20EE200AEB
:1016200004EB8500E04901EB8000D0ED000A9FED5E
:10163000DD1A01EE200A04EB850001EB800080ED4D
:10164000000AF8EEC80A9FEDD40A03F047FA38EE14
:10165000C00A04EB8500D24901EB8000D0ED000AFE
:1016600080EE801AB0EE419AF8EEC80A9FEDCD0ADE
:1016700003F034FA38EEC00A04EB8500CA4901EBE6
:101680008000D0ED000A80EE801AF0EE419AB0EEB4
:10169000690A03F055FDDFEDC50A30EE200ADFEDE3
:1016A000C40A69EE200A80EE801A04EB8500C14965
:1016B00001EB800090ED000A30EE410A04EB85005A
:1016C00001EB800080ED000A9FEDB20A04EB85007B
:1016D000B24901EB800080ED000A6D1C102DFFF671
:1016E0006CAF9FEDAD0A38EEC00AB34800EB840042
:1016F000D0ED000A20EE200AB04800EB8400D0EDC7
:10170000000A9FEDA51A01EE200AAC4800EB840008
:1017100080ED000A9FEDA30A38EEC00AA64800EB50
:101720008400D0ED000A20EE200AA34800EB8400DC
:10173000D0ED000A20EE200AA14800EB8400D0ED95
:10174000000A9FED981A01EE200A9D4800EB8400E4
:1017500080ED000AF8EEC80A9FED8F0A03F0BEF98B
:1017600038EEC00A954800EB8400D0ED000A80EE08
:10177000801AB0EE419AF8EEC80A9FED8A0A03F08B
:10178000ADF938EEC00A8E4800EB8400D0ED000AB7
:1017900080EE801AF0EE419AB0EE690A03F0D0FCB8
:1017A000DFED820A30EE200ADFED810A69EE200AC1
:1017B00080EE801A834800EB840090ED000A30EE42
:1017C000410A804800EB840080ED000A9FED710A19
:1017D000794800EB840080ED000A641C042CFFF6BD
:1017E000EAAE00243DE100258DE004EB05107649CA
:1017F00001EB800090ED000ADFED670A20EE200A81
:1018000004EB0510714901EB8000D0ED000A9FED5B
:10181000701A01EE200A04EB05106B4901EB800001
:1018200080ED000A04EB0510684901EB800090EDA3
:10183000000ADFED680A20EE200A04EB051001EB38
:101840008000D0ED000A20EE200A04EB051062496A
:1018500001EB8000D0ED000A9FED521A01EE200A44
:1018600004EB051001EB800080ED000AF8EEC80AD9
:101870009FED490A03F032F938EEC00A04EB051077
:10188000514901EB8000D0ED000A80EE801AB0EEE5
:10189000419AF8EEC80A9FED430A03F01FF938EEAB
:1018A000C00A04EB05104C4901EB8000D0ED000AA2
:1018B00080EE801AF0EE419AB0EE690A03F040FC27
:1018C000DFED3A0A30EE200ADFED390A69EE200A30
:1018D00080EE801A04EB0510404901EB800090ED8A
:1018E000000A30EE410A04EB051001EB800080EDA8
:1018F000000A9FED280A04EB0510344901EB800033
:1019000080ED000A6D1C282DFFF66FAF9FED220AB7
:1019100038EEC00A324800EB8400D0ED000A20EE19
:10192000200A304800EB8400D0ED000A9FED1A1A1F
:1019300001EE200A2B4800EB840080ED000A9FEDA9
:10194000190A38EEC00A264800EB8400D0ED000AE0
:1019500020EE200A224800EB8400D0ED000A20EEA1
:10196000200A214800EB8400D0ED000A9FED0D1AFB
:1019700001EE200A1C4800EB840080ED000AF8EE1E
:10198000C80A9FED050A03F0A9F838EEC00A154809
:101990002CE00000000000006666663F1C970120F6
:1019A000BCE4012077BE7F3FBCE5012077CC2B3221
:1019B0006F12033A1C9601202CB701209CE40120F1
:1019C000ACE401201CB701209CD001204C0A00206F
:1019D000D0CCCC3D0012833A9CDA01204C00002090
:1019E0008C4A01201CD001205CD0012000EB840037
:1019F000D0ED000A80EE801AB0EE419AF8EEC80AE7
:101A00001FED180A03F06AF838EEC00AF74800EB39
:101A10008400D0ED000A80EE801AF0EE419AB0EE1C
:101A2000690A03F08DFB5FED1F0A30EE200A5FEDBF
:101A3000200A29EE201AC1EE000AED4800EB8400CE
:101A400090ED000A30EE600AE94800EB840080ED7A
:101A5000000A1FED300AE74800EB840080ED000A21
:101A6000641C102CFFF6BFAE002412E1002590E0AC
:101A70001FED370A38EEC00A04EB8500DE4901EBA2
:101A80008000D0ED000A20EE200A04EB8500DB493F
:101A900001EB8000D0ED000A1FED411A01EE200A93
:101AA00004EB850001EB800080ED000A1FED430A86
:101AB00038EEC00A04EB8500CF4901EB8000D0ED81
:101AC000000A20EE200A04EB850001EB8000D0ED37
:101AD000000A20EE200A04EB8500C94901EB8000D2
:101AE000D0ED000A1FED511A01EE200A04EB85002B
:101AF00001EB800080ED000AF8EEC80A1FED5A0ADB
:101B000002F0ECFF38EEC00A04EB8500BB4901EBA4
:101B10008000D0ED000A80EE801AB0EE419AF8EE17
:101B2000C80A1FED600A02F0D9FF38EEC00A04EBC4
:101B30008500B34901EB8000D0ED000A80EE801AE9
:101B4000F0EE419AB0EE690A03F0FAFA5FED690A25
:101B500030EE200A5FED6A0A29EE201AC1EE000A73
:101B600004EB8500A74901EB800090ED000A30EE00
:101B7000600A04EB850001EB800080ED000A1FED98
:101B80007B0A04EB85009C4901EB800080ED000A94
:101B90006D1C102DFFF66CAF1FED810A38EEC00AE8
:101BA000994800EB8400D0ED000A20EE200A974807
:101BB00000EB8400D0ED000A1FED891A01EE200A27
:101BC000924800EB840080ED000A1FED8A0A38EE8F
:101BD000C00A8D4800EB8400D0ED000A20EE200AF8
:101BE000894800EB8400D0ED000A20EE200A8848E6
:101BF00000EB8400D0ED000A1FED961A01EE200ADA
:101C0000834800EB840080ED000AF8EEC80A1FED5F
:101C10009E0A02F063FF38EEC00A7C4800EB8400A5
:101C2000D0ED000A80EE801AB0EE419AF8EEC80AB4
:101C30001FEDA40A02F052FF38EEC00A744800EB10
:101C40008400D0ED000A80EE801AF0EE419AB0EEEA
:101C5000690A03F075FA5FEDAB0A30EE200A5FED1A
:101C6000AC0A29EE201AC1EE000A6A4800EB840093
:101C700090ED000A30EE600A664800EB840080EDCB
:101C8000000A1FEDBC0A604800EB840080ED000AEA
:101C9000641C042CFFF6EAAEBDEC048BBDE8F081B9
:101CA00030B5014600204AE0002211E000EB41136C
:101CB0001344594C04EB830393ED000A00EB8003BB
:101CC000564C04EB431303EB820383ED000A521CD2
:101CD000182AEBDB00222FE000231AE000EB41146E
:101CE0001834144404EB84044D4D05EB840404EBD8
:101CF000830494ED000A00EB8004484D05EB441486
:101D0000182505EB82051D4404EB850484ED000ACB
:101D10005B1C042BE2DB00EB4113183313443E4CF5
:101D200004EB830393ED000A3E4B03EB001303EB3C
:101D3000820383ED000A521C042ACDDB401C2028BC
:101D4000B2DB30BD10B5014600200BE00A18324B63
:101D500003EB820292ED000A334A02EB800282ED2D
:101D6000000A401C1828F1DB002027E0002215E0C3
:101D700001F11803034403EB8303294C04EB8303B1
:101D800003EB820393ED000A182303EB8003134453
:101D9000254C04EB830383ED000A521C042AE7DB85
:101DA00001F1180202441C4B03EB820292ED000A7F
:101DB0001E4A02EB800282ED000A401C0428D5DB9B
:101DC00010BD10B5014600200BE00A18184B03EBBC
:101DD000820292ED000A144A02EB800282ED000AB0
:101DE000401C1828F1DB00204CE000005CD00120F2
:101DF0004C4A01208C4A01200C740120DCE60120B1
:101E0000DCE701200C7301201C940120BCE60120BA
:101E1000CCE601200C94012008D004082CB9012044
:101E2000A88900082CCD01202CCF0120CCCF012087
:101E300098BD0608002215E001F11803034403EBE6
:101E40008303FE4C04EB830303EB820393ED000A50
:101E5000182303EB80031344F94C04EB830383ED55
:101E6000000A521C042AE7DB01F118020244F54B78
:101E700003EB820292ED000AF34A02EB800282ED4C
:101E8000000A401C0428D5DB10BD70B52DED028B77
:101E90007B2002F0B7FD002425E0002520E09FED27
:101EA000EB0AEB4800EB840080ED000A02F0A0FD95
:101EB00000EE100AB8EEC00ADFEDE60A80EE208AD6
:101EC000B6EE000A38EE400AF6EE000A20EE200ACE
:101ED00004EB0510E04901EB800080ED000A6D1C69
:101EE000282DDCDB641C102CD7DB002427E0002528
:101EF00022E09FEDD60AD94800EB840080ED000A6D
:101F000002F076FD00EE100AB8EEC00ADFEDD10A4D
:101F100080EE201AB0EE418AB6EE000A38EE400A92
:101F2000F6EE000A20EE200A04EB8500CC4901EB16
:101F3000800080ED000A6D1C102DDADB641C042C7F
:101F4000D5DB002427E0002522E09FEDC00AC5482C
:101F500000EB840080ED000A02F04AFD00EE100A5A
:101F6000B8EEC00ADFEDBB0A80EE201AB0EE418A5F
:101F7000B6EE000A38EE400AF6EE000A20EE200A1D
:101F800004EB8500B84901EB800080ED000A6D1C70
:101F9000102DDADB641C042CD5DBBDEC028B70BD8C
:101FA00010B5DFEDAA0AB0EE600A002038E000218B
:101FB00033E0A74A02EB8102D2ED000AB0EE600ADC
:101FC000002216E000EB8003A84C04EB431303EB64
:101FD000820393ED001A01EB02139F4C04EB830381
:101FE000D3ED001AF0EE400A41EE210AB0EE600A8D
:101FF000521C282AE6DBB5EEC00AF1EE10FA02DD2B
:10200000F0EE400A01E0DFED910A01EB0012984B7F
:1020100003EB8202C2ED000A491C1029C9DB401CF7
:102020002028C4DB10BD1FB5002000900190029055
:1020300003909FED861AB0EE410A9FED841AF0EEF0
:10204000410A00BFA8E000213CE0864A02EB810281
:1020500092ED001AB0EE410A002214E002EB0013E8
:10206000844C04EB8303D3ED001A01EB82037E4C16
:1020700004EB830393ED002AB0EE401A01EE821ABE
:10208000B0EE410A521C102AE8DB7B4A02EB8102C7
:1020900082ED000A794A02EB001202EB810292ED16
:1020A000001A754A02EB8102D2ED001A31EEC11A14
:1020B000F6EE001A21EE211A6A4602EB810282ED49
:1020C000001A491C0429C0DB00213BE06A4602EBF0
:1020D000810292ED001A9FED6A2AC1EE021A694A46
:1020E00002EB810292ED001A31EE811A654A02EB91
:1020F000810282ED001A002221E002EB00135D4C08
:1021000004EB830393ED001A6B4603EB8103D3EDDD
:10211000001A21EE211A9FED5A2AC1EE021A01EB94
:102120008203594C04EB830393ED001A31EE811ABC
:1021300001EB820304EB830383ED001A521C102A87
:10214000DBDB491C0429C1DB002122E09FED3F1AA3
:10215000F0EE410A002212E002EB8103424C04EB54
:102160008303D3ED001A6B4603EB820393ED002A41
:10217000B0EE601A01EE821AF0EE410A521C042AF7
:10218000EADB01EB0012414B03EB8202C2ED000AD5
:10219000491C1029DADB401C2028FFF654AF1FBD74
:1021A0001FB5002000900190029003909FED271A28
:1021B000B0EE410A9FED251AF0EE410A0021F3E04E
:1021C000002086E0254A02EB800292ED001AB0EE74
:1021D000410A002214E002EB0113254C04EB8303B7
:1021E000D3ED001A00EB82031D4C04EB830393ED47
:1021F000002AB0EE401A01EE821AB0EE410A521CDB
:10220000102AE8DB224A02EB800282ED000A1B4A18
:1022100002EB011202EB800292ED001A1C4A02EB63
:102220008002D2ED001A31EEC11A1A4AD2ED001A1C
:1022300021EE211AF6EE001A2EE00000E8AA0508A9
:102240002CCF012098BD0608CCCF01200000000053
:102250004C4A01200000004F4C0000201CB7012018
:102260001C9601200C9401200C7301202CB9012034
:102270008C5201208C620120DCCF01202CCD01206A
:10228000000000421C9401200C7401208C6A012083
:10229000ECCF01201400002021EE211AFE4A02EBAF
:1022A0008002D2ED001AFD4A02EB800292ED002A74
:1022B00071EEC21AFA4A92ED002A61EE821AB6EE67
:1022C000002A01EE821A6A4602EB800282ED001AB1
:1022D000401C0428FFF676AF00203BE06A4602EB84
:1022E0008002D2ED001A1FED1A2A81EE821AED4A01
:1022F00002EB8002D2ED001A31EE211AE94A02EB1C
:10230000800282ED001A002221E002EB0113E64C6C
:1023100004EB830393ED001A6B4603EB8003D3EDCC
:10232000001A21EE211A5FED2A1A81EE212A00EB14
:102330008203DE4C04EB830393ED001A32EE011AA4
:1023400000EB820304EB830383ED001A521C102A76
:10235000DBDB401C0428C1DB002022E01FED451A16
:10236000F0EE410A002212E002EB8003D04C04EBB5
:102370008303D3ED001A6B4603EB820393ED002A2F
:10238000B0EE601A01EE821AF0EE410A521C042AE5
:10239000EADB00EB0112C74B03EB8202C2ED000A3D
:1023A000401C1028DADB491C2029FFF609AF1FBDAD
:1023B00010B590B04021684602F033FB00215DE08B
:1023C000002058E000EB0112B74B03EB820292EDC4
:1023D000000AB5EEC00AF1EE10FA07DD00EB0112BB
:1023E000B44B03EB820292ED000A01E01FED690A93
:1023F0006A4602EB800282ED000A6A4602EB800226
:10240000D2ED000A1FED621A80EE810AAA4A02EBA1
:102410008002D2ED000A30EE200AA74A02EB8002C9
:1024200082ED000A002223E001EB8103A34C04EBC0
:10243000431303EB820393ED000A6B4603EB800327
:10244000D3ED000A60EE200A1FED731A80EE810AB8
:1024500000EB02139A4C04EB8303D3ED000A30EE39
:10246000200A00EB021304EB830383ED000A521CE5
:10247000282AD9DB401C1028A4DB491C20299FDB1B
:1024800010B010BD10B590B04021684602F0C9FAF6
:1024900000215DE0002058E000EB0112824B03EBCD
:1024A000820292ED000AB5EEC00AF1EE10FA07DDE5
:1024B00000EB01127F4B03EB820292ED000A01E078
:1024C0001FED9E0A6A4602EB800282ED000A6A4610
:1024D00002EB8002D2ED000A1FED971A80EE810A0E
:1024E000754A02EB8002D2ED000A30EE200A724AF1
:1024F00002EB800282ED000A002223E001EB81035F
:102500006E4C04EB431303EB820393ED000A6B461E
:1025100003EB8003D3ED000A60EE200A1FEDA81A3A
:1025200080EE810A00EB0213654C04EB8303D3EDCC
:10253000000A30EE200A00EB021304EB830383ED64
:10254000000A521C282AD9DB401C1028A4DB491C95
:1025500020299FDB10B010BD5FEDC40AB0EE600A09
:1025600000202DE0574901EB8001D1ED000AB0EECB
:10257000600A002112E0544A02EB810292ED001A37
:1025800000EB0112514B03EB8202D2ED001AF0EE88
:10259000400A41EE210AB0EE600A491C2829EADB14
:1025A000B5EEC00AF1EE10FA02DDF0EE400A01E0ED
:1025B0005FEDDA0A464901EB8001C1ED000A401CDB
:1025C0001028CFDB70475FEDDF0AB0EE600A002015
:1025D00023E0404901EB8001D1ED000AB0EE600A32
:1025E000002112E03C4A02EB810292ED001A00EB5E
:1025F00081023A4B03EB8202D2ED001AF0EE400A60
:1026000041EE210AB0EE600A491C1029EADB234999
:1026100001EB800181ED000A401C0428D9DB002079
:1026200071E01E4901EB800191ED001ADFED2C0AEB
:10263000DFED2C1A41EE810A2B4901EB8001C1ED3F
:10264000000A2A4901EB800191ED001ADFED240A0E
:10265000DFED241A41EE810A254901EB8001C1ED2D
:10266000000A214901EB8001D1ED000A204901EB6C
:10267000800191ED001A30EEC11A1B4901EB800177
:10268000D1ED000A1A4901EB8001D1ED001A70EE7C
:10269000E11A184930E00000ECCF0120DCCF012026
:1026A000180000202CB701208C5201201C9701201B
:1026B0001C9601208C5A01208C4A01202CB9012043
:1026C0004C0A00204C4A01202CCF01204C00002055
:1026D0008C7201200C940120CC7201200C7301201B
:1026E0002715BF428D2E4E42FCCF0120CCCF0120BA
:1026F0000CD001201C000020D1ED000A41EE210A7F
:10270000C1ED000A401C04288BDB704710B504465D
:102710006FF0040000F00AFCE11704EB5171C1F303
:10272000C701394A11701046007800EB4001C1EB37
:10273000C0104FF6FF7101EAC0003449088010BD97
:102740000146314A12784A434FF0E0235A61002291
:102750009A611A46126942F001021A6100BF4FF0F5
:10276000E022106900F001021AB100F48032002A60
:10277000F5D04FF0E022126922F001024FF0E02381
:102780001A6100229A6170470146204A12884A4322
:102790004FF0E0235A6100229A611A46126942F012
:1027A00001021A6100BF4FF0E022106900F001023F
:1027B0001AB100F48032002AF5D04FF0E0221269FD
:1027C00022F001024FF0E0231A6100229A61704763
:1027D00070B504464FF4077094FBF0F0C6B24FF4A6
:1027E000077094FBF0F100FB114085B205E04FF457
:1027F0000770FFF7C9FF701EC6B2002EF7D115B1E2
:102800002846FFF7C1FF70BD2C0000202E000020DD
:1028100000BF704700BFF74A128802F04002002A4A
:10282000F9D0C2B2F34B9A80704700BFF1490988D2
:1028300001F040010029F9D0EE498880704710B5B9
:10284000024600200AE000BFEA4B1B8803F0400369
:10285000002BF9D0135CE74CA380401C8842F2DBCC
:1028600010BD00B52DED020B6B46002203E0985C15
:10287000FFF7DBFF521C042AF9D30CBD00BFDD4873
:10288000008800F020000028F9D0DA488088C0B223
:10289000704778B50546D8480078FFF7C6FF002294
:1028A00018E0002313E002EB820003EBC00005EB0D
:1028B000800090ED000A8DED000A6E46002403E0D2
:1028C000305DFFF7B2FF641C042CF9D35B1C282B8E
:1028D000E9DB521C102AE4DB78BD38B50446C74852
:1028E0000078FFF7A2FF00220FE004EB820090EDDA
:1028F000000A8DED000A6D46002303E0E85CFFF757
:1029000094FF5B1C042BF9D3521C102AEDDB38BD5D
:1029100078B50546BA480078FFF787FF002216E031
:10292000002311E003EB021005EB800090ED000A9C
:102930008DED000A6E46002403E0305DFFF775FF61
:10294000641C042CF9D35B1C102BEBDB521C042AF7
:10295000E6DB78BD38B50446AA480078FFF765FF86
:1029600000220FE004EB820090ED000A8DED000ADA
:102970006D46002303E0E85CFFF757FF5B1C042B68
:10298000F9D3521C042AEDDB38BD78B505469E48C4
:102990000078FFF74AFF002216E0002311E003EB66
:1029A000021005EB800090ED000A8DED000A6E46E6
:1029B000002403E0305DFFF738FF641C042CF9D3DA
:1029C0005B1C102BEBDB521C042AE6DB78BD38B510
:1029D00004468E480078FFF728FF00220FE004EB42
:1029E000820090ED000A8DED000A6D46002303E0A1
:1029F000E85CFFF71AFF5B1C042BF9D3521C042A76
:102A0000EDDB38BD78B5054681480078FFF70DFF4E
:102A1000002216E0002311E003EB021005EB80001A
:102A200090ED000A8DED000A6E46002403E0305D53
:102A3000FFF7FBFE641C042CF9D35B1C102BEBDBB3
:102A4000521C202AE6DB78BD78B50546714800782F
:102A5000FFF7EBFE002216E0002311E003EB02106B
:102A600005EB800090ED000A8DED000A6E46002413
:102A700003E0305DFFF7D9FE641C042CF9D35B1C26
:102A8000102BEBDB521C202AE6DB78BD38B5044660
:102A900061480078FFF7C9FE00220FE004EB8200D6
:102AA00090ED000A8DED000A6D46002303E0E85C1E
:102AB000FFF7BBFE5B1C042BF9D3521C102AEDDB85
:102AC00038BD18B5002300210DE0002204E0FFF717
:102AD000D5FE0DF80200521C042AF8D34F4A009C80
:102AE00042F82140491CB1F5207FEEDB18BD18B536
:102AF000002300210DE0002204E0FFF7BFFE0DF8E7
:102B00000200521C042AF8D3454A009C42F8214096
:102B1000491C1029EFDB18BD18B5002300210DE07A
:102B2000002204E0FFF7AAFE0DF80200521C042A5E
:102B3000F8D33C4A009C42F82140491C4029EFDB75
:102B400018BD18B5002300210DE0002204E0FFF7B6
:102B500095FE0DF80200521C042AF8D3324A009C5C
:102B600042F82140491C0429EFDB18BD18B50023A9
:102B700000210DE0002204E0FFF780FE0DF80200C6
:102B8000521C042AF8D3294A009C42F82140491CCF
:102B90004029EFDB18BD18B5002300210DE000220D
:102BA00004E0FFF76BFE0DF80200521C042AF8D374
:102BB0001F4A009C42F82140491C0429EFDB18BD44
:102BC00018B5002300210DE0002204E0FFF756FEB7
:102BD0000DF80200521C042AF8D3164A009C42F851
:102BE0002140491CB1F5007FEEDB18BD18B500236C
:102BF00000212FE0001001409C8900089F890008F7
:102C00009D890008A08900089E890008A189000804
:102C1000A2890008A3890008A48900084C000020AC
:102C20004C0A00201C9601201CB701200C730120C7
:102C30000C9401208C620120002204E0FFF71EFEAC
:102C40000DF80200521C042AF8D3364A009C42F8C0
:102C50002140491CB1F5007FEEDB18BD18B50023FB
:102C600000210DE0002204E0FFF708FE0DF802004D
:102C7000521C042AF8D32C4A009C42F82140491CDB
:102C80001029EFDB18BD00B5FFF7F8FD014600BDC8
:102C900000B587B00121084600F08AFC0121102010
:102CA00000F0E0FC07220921204800F06EFA07221C
:102CB0000A211E4800F069FA4FF4C0600590022016
:102CC0008DF818008DF8190000208DF81A000120E9
:102CD0008DF81B0005A9154800F0CCF94FF4E13040
:102CE00001900020ADF80800ADF80A00ADF80C0026
:102CF000ADF810000C20ADF80E0001A90C4800F052
:102D000012FE01210A4800F096FE4021084800F01A
:102D10007AFF002240F22551054800F042FF07B03B
:102D200000BD00008C5A0120CC720120000002403E
:102D30000010014008B54FF4E06000F0A5F837201E
:102D40008DF8000000208DF8010003208DF80200AE
:102D500001208DF80300684600F09BF808BD0EB511
:102D60000121202000F06DFC42F20F70019042F230
:102D7000CF00ADF8000069461D4801F044F801217C
:102D80001B4801F0F5FC01221146194801F0DCFC5A
:102D90000121174801F0C0F80EBD10B5FFF7CAFFBA
:102DA000FFF7DDFF10BD10B50121114801F0D7FC80
:102DB00040B110480068401C0E49086001210C48D1
:102DC00001F0D6FC10BD10B500200949243108607F
:102DD0000121074801F0A0F810BD10B504482430C7
:102DE00004680021024801F097F8204610BD000059
:102DF000001400403000002010B5A820FFF786FC2A
:102E00000121402000F0E5FB012001F0ABFD0AE0CC
:102E1000601C84B26420FFF793FC42F2107084427D
:102E200001DB012010BD012001F0BEFD0028EFD024
:102E30000020F7E710B500BF012001F0B5FD002824
:102E4000FAD001F09EFD10BD70B504460D46FFF7A7
:102E5000F1FF291B491CB0FBF1F201FB12002044D9
:102E600070BD00000648804706480047FEE7FEE7C1
:102E7000FEE7FEE7FEE7FEE7FEE7FEE7FEE7FEE72A
:102E80002D0400088901000832490143324A1160CB
:102E9000704770B5002100230F22C4781CB32E4C5C
:102EA000246804F4E064C4F5E064C4F30721C1F1CC
:102EB0000404E3B20A4144789C40E1B284781440AF
:102EC00021430C07210E254C05786155047804F048
:102ED0001F050124AC4005786D11AD0005F1E0251A
:102EE000C5F8004109E0047804F01F050124AC4056
:102EF0001B4D0678761145F8264070BD194A0A40E8
:102F00000243154B1B1F1A60704739B1124A121D3C
:102F100012680243104B1B1D1A6006E00E4A121D78
:102F2000126882430C4B1B1D1A607047042808D19D
:102F30004FF0E021096941F004014FF0E0221161F6
:102F400007E04FF0E021096921F004014FF0E02291
:102F5000116170470000FA050CED00E000E400E0AC
:102F600080E100E080FFFF1F10B5044698488442CE
:102F700008D10121084600F086FB0021012000F065
:102F800082FB76E09348844208D10121022000F0C0
:102F90007AFB0021022000F076FB6AE08E48844232
:102FA00008D10121042000F06EFB0021042000F074
:102FB0006AFB5EE08948844208D10121082000F0C4
:102FC00062FB0021082000F05EFB52E0844884424E
:102FD00008D10121102000F056FB0021102000F044
:102FE00052FB46E07F48844208D10121202000F0B6
:102FF0004AFB0021202000F046FB3AE07A48844258
:1030000008D10121402000F03EFB0021402000F0CB
:103010003AFB2EE07548844208D10121802000F05F
:1030200032FB0021802000F02EFB22E07048844219
:1030300008D10121801500F026FB0021A01500F029
:1030400022FB16E06B48844208D10121401500F0B4
:103050001AFB0021601500F016FB0AE06648844266
:1030600007D10121001500F00EFB0021201500F012
:103070000AFB10BDF0B50A4600210023002400BF62
:103080003DE0012505FA01F3156805EA03049C42B9
:1030900034D105684F000326BE40B543056015795D
:1030A0004E00B5400668354305601579012D02D004
:1030B0001579022D16D185684F000326BE40B54311
:1030C000856055794E00B540866835438560456812
:1030D00001268E40B5434560456896798E40B6B26C
:1030E00035434560C5684F000326BE40B543C56003
:1030F000D5794E00B540C6683543C560491C1029D6
:10310000BFD3F0BD4FF6FF71016000210171417125
:103110008171C171704708B54FF480320092009AF6
:103120000A430092009AC261C161009AC261C269F9
:103130000092C269009208BD0246002013690B404C
:103140000BB1012000E0002070470146086980B201
:1031500070470246002053690B400BB1012000E08C
:10316000002070470146486980B27047018370476C
:10317000418370470AB1018300E041837047416198
:10318000704742694A4042617047F0B5002300240D
:103190004D07ED0E02FA05F3CE1000F1200555F8AB
:1031A00026504E07F70E0F26BE40B543CF1000F154
:1031B000200646F82750CE1000F1200555F826507D
:1031C00045EA0304CE1000F1200545F82640F0BD85
:1031D000000002400004024000080240000C0240CF
:1031E000001002400014024000180240001C02407F
:1031F000002002400024024000280240F9480068F4
:1032000040F00100F74908600020F64908310860E5
:10321000F4480068F4490840F2490860F348091D81
:103220000860F348EF4984310860F0481038091D00
:103230000860EC48006820F48020EA49086000201B
:10324000E8490C310860E7498C310860704700217B
:10325000E44A921C117011460870704710B501467F
:103260000022002300204A11012A02D1DD4C2368EC
:1032700008E0022A03D1DB4C7034236802E0D94C09
:103280007434236801F01F02012494401C400CB1E7
:10329000012000E0002010BD38B50020009000247F
:1032A000002500BF3120FFF7D9FF05460098401CDC
:1032B00000900098B0F5A04F01D0002DF2D0312041
:1032C000FFF7CCFF08B1012400E00024204638BD00
:1032D00001460020C34A106820F0F80040EAC1000F
:1032E00010607047C349086070470021BD4A7032C2
:1032F00011701170012802D004280AD104E00121C4
:10330000B84A7032117005E00521B64A703211706A
:1033100000E000BF00BF7047B7490860704770B554
:10332000049C41EA82150126C6EB530645EA064590
:10333000054345EA0465AB4E361D356070BDAD49A9
:1033400008667047820142EA0172A64B84331A6014
:103350007047A8498866704710B5830143EA016346
:1033600043EA02739F4C8834236010BDA14908676B
:103370007047A049C864704702460020994B083343
:10338000186820F0EC6042EA01031843954B0833BB
:103390001860704702460020924B0833186820F0EE
:1033A000784042EA010318438E4B08331860704797
:1033B000014600208B4A0832106820F003000843C1
:1033C0001060704787480830006800F00C007047B4
:1033D00001460020834A0832106820F0F0000843BC
:1033E00010607047014600207E4A0832106820F4C1
:1033F000E05008431060704701460020794A0832C7
:10340000106820F4604040EAC10010607047F0B5D9
:10341000002100220024022500260223714F0837D4
:103420003F6807F00C0121B1042905D0082937D1E4
:1034300005E0724F076036E0714F076033E0694F77
:103440003F1D3F68C7F38056664F3F1D3F6807F03A
:103450003F036EB16A4FB7FBF3F7DFF888C10CF199
:10346000040CDCF800C0CCF3881C07FB0CF40CE067
:10347000624FB7FBF3F7DFF86CC10CF1040CDCF81A
:1034800000C0CCF3881C07FB0CF4564F3F1D3F686F
:10349000C7F301477F1C7D00B4FBF5F7076002E02E
:1034A000564F076000BF00BF4E4F08373F6807F018
:1034B000F0010909534F7A5C0768D7404760494FCC
:1034C00008373F6807F4E051890A4E4F7A5C476835
:1034D000D7408760434F08373F6807F46041490B86
:1034E000484F7A5C4768D740C760F0BD002100F4C0
:1034F0004072B2F5407F0AD13A4A0832116821F48D
:10350000F811414A02401143364A08321160354AE7
:1035100070321268C0F30B031A43324B70331A60D7
:10352000704735494439086070473349403908606D
:10353000704736490860704701460020294A8C329E
:10354000106820F01F004A1E1043264A8C3210607B
:10355000704701460020234A8C32106820F4F8504E
:103560004A1E40EA02201F4A8C3210607047014612
:1035700000201C4A8C32106820F440100843106070
:10358000704701460020174A8C32106820F4400032
:1035900008431060704701460020124A8C321068C0
:1035A00020F44030084310607047194908607047A4
:1035B00039B10C4A3032126802430A4B30331A6078
:1035C00006E0084A303212688243064B30331A60F4
:1035D0007047F9B1034A343212680243014B343365
:1035E0001A601CE000380240FFFFF6EA10300024A9
:1035F0000030002000004742800E47420024F400C3
:1036000000127A0034000020FFFCFF0F5C014742EB
:10361000E01147428F4A126882438E4B1A6070470E
:1036200039B18C4A121D126802438A4B1B1D1A6065
:1036300006E0884A121D12688243864B1B1D1A60E1
:10364000704739B1834A0C3212680243814B0C3304
:103650001A6006E07F4A0C32126882437D4B0C33BD
:103660001A60704739B17B4A103212680243794BB5
:1036700010331A6006E0774A103212688243754BA5
:1036800010331A60704739B1724A243A1268024303
:10369000704B243B1A6006E06E4A243A126882435B
:1036A0006C4B243B1A60704739B16A4A203A126861
:1036B0000243684B203B1A6006E0664A203A1268D3
:1036C0008243644B203B1A60704739B1614A1C3A0F
:1036D000126802435F4B1C3B1A6006E05D4A1C3ACD
:1036E000126882435B4B1C3B1A60704739B1594AE0
:1036F000143A12680243574B143B1A6006E0554ACD
:10370000143A12688243534B143B1A60704739B124
:10371000504A103A126802434E4B103B1A6006E0C2
:103720004C4A103A126882434A4B103B1A60704769
:1037300039B1484A1C3212680243464B1C331A60A6
:1037400006E0444A1C3212688243424B1C331A6022
:10375000704739B13F4A2032126802433D4B203353
:103760001A6006E03B4A203212688243394B20330C
:103770001A60704739B1374A243212680243354B18
:1037800024331A6006E0334A243212688243314BF4
:1037900024331A60704739B12E4A2C321268024322
:1037A0002C4B2C331A6006E02A4A2C3212688243D2
:1037B000284B2C331A60704739B1264A30321268D0
:1037C0000243244B30331A6006E0224A303212683A
:1037D0008243204B30331A607047012808D11D49BD
:1037E0003C31096841F008011A4A3C32116007E097
:1037F00018493C31096821F00801164A3C32116031
:10380000704739B1134A273A12780243114B273BCC
:103810001A7006E00F4A273A127882430D4B273B75
:103820001A7070470B484030006840F080700949BA
:1038300040310860704701460020064A283A126865
:103840000A400AB1012000E00020704701492639F2
:10385000087070473438024010B50446FA48844274
:1038600008D101211020FFF752FF00211020FFF79F
:103870004EFF57E0F548844209D101214804FFF783
:1038800035FF00214FF40030FFF730FF4AE0F048E9
:10389000844209D101218804FFF728FF00214FF459
:1038A0008020FFF723FF3DE0EA48844209D101214F
:1038B000C804FFF71BFF00214FF40020FFF716FF9D
:1038C00030E0E548844209D101210805FFF70EFFE9
:1038D00000214FF48010FFF709FF23E0DF48844206
:1038E00008D101212020FFF712FF00212020FFF73F
:1038F0000EFF17E0DA48844209D101218807FFF75B
:10390000F5FE00214FF08040FFF7F0FE0AE0D548B9
:10391000844207D101214005FFF7E8FE0021600540
:10392000FFF7E4FE10BD2DE9FF4705460E460024D3
:10393000A14600BFA046B08900B100BF2C8A24F484
:103940004054F08804432C82AC8941F20C608443DB
:10395000B08831890843718908430443AC81AC8A3B
:1039600024F44074B0890443AC826846FFF74FFDED
:10397000B548854202D0B948854202D1DDF80C90A5
:1039800001E0DDF80890A88900F4004040B109EB9F
:10399000C90000EB091031684900B0FBF1F707E0FE
:1039A00009EBC90000EB091031688900B0FBF1F7A1
:1039B0006420B7FBF0F004012009642101FB1078BA
:1039C000A88900F4004040B1322000EBC800B0FBF1
:1039D000F1F000F00700044308E0322000EB08108B
:1039E0006421B0FBF1F000F00F0004432C81BDE82E
:1039F000FF874FF41651016000218180C180018151
:103A00000C21418100218181704710B502460020C0
:103A1000108A20F470600B884C8823438C882343E1
:103A2000CC8823431843108210BD002101804180BF
:103A30008180C180704721B1828942F40052828125
:103A400004E082894DF6FF731A4082817047028B31
:103A500002F47F420283028B0A430283704721B142
:103A6000828942F40042828103E08289C2F30E021D
:103A70008281704721B1828A42F40062828204E02E
:103A8000828A4FF2FF731A4082827047C1F30802A4
:103A90008280704701468888C0F308007047028A18
:103AA0004FF6F0731A400282028A0A43028270477C
:103AB00021B1828942F00202828104E082894FF6BC
:103AC000FD731A408281704782894FF2FF731A405A
:103AD000828182890A4382817047028A4FF6DF73AE
:103AE0001A400282028A0A430282704721B1028A86
:103AF00042F48042028204E0028A4BF6FF731A40CD
:103B000002827047818941F001018181704721B1B2
:103B1000828A42F00802828204E0828A4FF6F773BA
:103B20001A4082827047028BD2B20283028B42EA31
:103B300001220283704721B1828A42F020028282F0
:103B400004E0828A4FF6DF731A408282704721B107
:103B5000828A42F01002828204E0828A4FF6EF737A
:103B60001A4082827047828A4FF6FB731A40828223
:103B7000828A0A438282704721B1828A42F002021D
:103B8000828204E0828A4FF6FD731A408282704777
:103B90001AB1838A0B43838202E0838A8B43838238
:103BA0007047F0B50346002400260025002040F6AB
:103BB0006A17B94200D100BF1846C1F3421401F0A0
:103BC0001F06012707FA06F5012C01D10C3004E08D
:103BD000022C01D1103000E014301AB107682F43D5
:103BE000076002E00768AF430760F0BD02460020AF
:103BF000B1F5007F00D100BF13880B400BB101204D
:103C000000E00020704701F40072B2F5007F00D19F
:103C100000BFCA430280704770B5024600240023EB
:103C20000025002040F66A16B14200D100BFC1F362
:103C3000421501F01F03012606FA03F3012D13D1EB
:103C40009689334017E00000001001400044004016
:103C500000480040004C004000500040001401406B
:103C600000780040007C0040022D02D1168A3340CB
:103C700001E0968A33400C12012606FA04F41688F5
:103C8000344013B10CB1012000E0002070BD10B52C
:103C90000022002340F66A14A14200D100BF0A129C
:103CA00001249440A3B2DC43048010BD10B5044647
:103CB000FE48844208D101210846FFF728FD002173
:103CC0000120FFF724FD9DE0B4F1804F08D10121D0
:103CD0000846FFF70BFD00210120FFF707FD91E0EB
:103CE000F348844208D101210220FFF7FFFC0021A4
:103CF0000220FFF7FBFC85E0EE48844208D1012159
:103D00000420FFF7F3FC00210420FFF7EFFC79E02B
:103D1000E948844208D101210820FFF7E7FC00218F
:103D20000820FFF7E3FC6DE0E448844208D101215C
:103D30001020FFF7DBFC00211020FFF7D7FC61E02B
:103D4000DF48844208D101212020FFF7CFFC002169
:103D50002020FFF7CBFC55E0DA48844208D101214E
:103D60000220FFF7D4FC00210220FFF7D0FC49E03D
:103D7000D548844209D101210804FFF7C8FC00217D
:103D80004FF48030FFF7C3FC3CE0D048844209D1B7
:103D900001214804FFF7BBFC00214FF40030FFF77E
:103DA000B6FC2FE0CA48844209D101218804FFF7FC
:103DB000AEFC00214FF48020FFF7A9FC22E0C548AB
:103DC000844208D101214020FFF790FC00214020CF
:103DD000FFF78CFC16E0C048844208D10121802006
:103DE000FFF784FC00218020FFF780FC0AE0BB483D
:103DF000844207D101218015FFF778FC0021A0152E
:103E0000FFF774FC10BD00220288A84B98420ED028
:103E1000AC4B98420BD0B0F1804F08D0A44B9842E5
:103E200005D0A44B984202D0A34B984204D14FF640
:103E30008F731A404B881A43A04B984207D0A04B6F
:103E4000984204D04FF6FF431A400B891A43028070
:103E50004B68C3620B880385944B984202D0994B00
:103E6000984201D18B7A03860123838270474FF0F9
:103E7000FF314160002101800181418081727047E2
:103E80000185828270470A46002101884FF68F73B0
:103E9000194011430180704741627047C162704709
:103EA0000146486A70470146088D704721B1028873
:103EB00042F00202028004E002884FF6FD731A40CD
:103EC0000280704721B1028842F00402028004E0BF
:103ED00002884FF6FB731A400280704721B10288B6
:103EE00042F08002028004E002884FF67F731A409D
:103EF0000280704702884FF6F7731A4002800288EA
:103F00000A430280704702884FF6FF431A4002803E
:103F100002880A430280704721B1028842F0010200
:103F2000028004E002884FF6FE731A400280704758
:103F300070B5002400220023058C4FF6FE76354034
:103F40000584028C8388048B4FF68F752C40B51E38
:103F50002C400D882C43751E2A408D892A434D889C
:103F60002A43524DA84202D0564DA84213D14FF6D3
:103F7000F7752A40CD892A434FF6FB752A408D8874
:103F80002A434FF6FF652B404FF6FF552B400D8A15
:103F90002B434D8A2B43838004838D6845630284C1
:103FA00070BD70B5002400220023058C4FF6EF761B
:103FB00035400584028C8388048B48F6FF752C40BD
:103FC0004FF6FF452C400D884FF6FF7606EA052593
:103FD0002C434FF6DF752A408D8906EA05152A43E2
:103FE0004D8806EA05152A43304DA84202D0354DCA
:103FF000A8421DD14FF67F752A40CD894FF6FF7636
:1040000006EA05152A434FF6BF752A408D8806EA51
:1040100005152A434FF6FF352B404FF2FF752B4015
:104020000D8A06EA85052B434D8A06EA85052B4352
:10403000838004838D688563028470BD70B500241D
:1040400000220023058C4FF6FF6635400584028C64
:104050008388848B4FF68F752C404FF6FC752C406F
:104060000D882C434FF6FF552A408D894FF6FF7679
:1040700006EA05252A434D8806EA05252A430B4D05
:10408000A84202D00F4DA84238D14FF2FF752A4006
:10409000CD894FF6FF7606EA05252A434FF6FF3510
:1040A0002A408D8806EA05252A4319E000000140D0
:1040B0000004004000080040000C004000100040D8
:1040C0000014004000040140004001400044014051
:1040D0000048014000180040001C00400020004043
:1040E0004EF6FF752B404DF6FF752B400D8A06EA04
:1040F00005152B434D8A06EA05152B4383808483DF
:104100008D68C563028470BD70B500220023002451
:10411000058C4EF6FF7635400584038C8488828BAF
:1041200048F6FF752A404FF6FF452A400D884FF6A6
:10413000FF7606EA05252A434DF6FF752B408D894B
:1041400006EA05352B434D8806EA05352B43FE4D1F
:10415000A84202D0FD4DA84208D14BF6FF752C4075
:104160000D8A4FF6FF7606EA85152C4384808283FC
:104170008D680564038470BD0021018041808180C9
:1041800081608181C18101824182704770B503469F
:10419000002000241846183001258D40ACB21D8C3B
:1041A000A5431D8409B108290AD100EB6100056807
:1041B0004FF68F76354005600568154305600FE0C2
:1041C0000D1FC5F34E052844056848F6FF763540B7
:1041D000056005684FF6FF7606EA0226354305605E
:1041E00070BD4163704781637047C163704701646C
:1041F00070470A460021018B4FF68F731940114317
:10420000018370470A460021018B48F6FF7319406D
:104210004FF6FF7303EA02231943018370470A46EE
:104220000021818B4FF68F731940114381837047B2
:104230000A460021818B48F6FF7319404FF6FF7341
:1042400003EA02231943818370470A460021018B48
:104250004FF6F77319401143018370470A46002156
:10426000018B4FF2FF7319404FF6FF7303EA0223ED
:104270001943018370470A460021818B4FF6F7737B
:1042800019401143818370470A460021818B4FF208
:10429000FF7319404FF6FF7303EA0223194381832A
:1042A00070470A460021018B4FF6FB7319401143FA
:1042B000018370470A460021018B4FF6FF331940F6
:1042C0004FF6FF7303EA02231943018370470A463E
:1042D0000021818B4FF6FB73194011438183704796
:1042E0000A460021818B4FF6FF3319404FF6FF73CA
:1042F00003EA02231943818370470A460021018B98
:104300004FF67F7319401143018370470A4600211D
:10431000018BC1F30E014FF6FF7303EA0223194329
:10432000018370470A460021818B4FF67F73194045
:104330001143818370470A460021818BC1F30E012E
:104340004FF6FF7303EA02231943818370470A463D
:104350000021018C4FF6FD73194011430184704711
:104360000A460021018C4FF6F7731940114301846E
:1043700070470A460021018C4FF6DF7319404FF653
:10438000FF7303EA02131943018470470A460021B0
:10439000018C4FF67F7319404FF6FF7303EA021347
:1043A0001943018470470A460021018C4FF6FF53E0
:1043B00019404FF6FF7303EA022319430184704743
:1043C0000A460021018C4FF2FF7319404FF6FF732C
:1043D00003EA02231943018470470A460021018C35
:1043E0004DF6FF7319404FF6FF7303EA023319438A
:1043F0000184704730B5002301248C40A3B2048CA3
:104400009C430484048C02FA01F5ADB22C4304846D
:1044100030BD30B5002304248C40A3B2048C9C43EF
:104420000484048C02FA01F5ADB22C43048430BD3F
:10443000828B4FF2FF331A408283828B4FF6FF73D9
:1044400003EA01231A4382837047F0B50C461546F0
:10445000002100220026078C4EF6FF7C07EA0C079D
:104460000784818B028C4FF6FF7707EA043640F60B
:10447000FF4739404FF6FF7707EA052739434FF6E4
:10448000FF7707EA0337394345F6FF773A4046F4AA
:1044900080573A4381830284F0BD828B4FF6F373D9
:1044A0001A408283828B0A4382837047F0B50C46A0
:1044B0001546002100220026078C4FF6FF6C07EA04
:1044C0000C070784818B028C4FF6FF7707EA0426DE
:1044D0004FF60C7739404FF6FF7707EA03172F4363
:1044E00039434FF2FF573A4046F480773A4381838D
:1044F0000284F0BD028B4FF2FF331A400283028B1D
:104500004FF6FF7303EA01231A4302837047F0B5A5
:104510000C461546002100220026078C4FF6EF7C42
:1045200007EA0C070784018B028C4FF6FF7707EA36
:10453000041640F6FF4739404FF6FF7707EA033786
:1045400039434FF6FF7703E00000014000040140CB
:1045500007EA052739434FF65F773A4046F01007E0
:104560003A4301830284F0BD028B4FF6F3731A4085
:104570000283028B0A4302837047F0B50C4615464E
:1045800000210022068C4FF6FE773E400684018B08
:10459000028C4FF60C7631407E1C06EA03162E4341
:1045A00031434FF6F576324044F001063243018341
:1045B0000284F0BD70B505460C46208850B92389A9
:1045C000A28861882846FFF7D8FFE1882846FFF7D0
:1045D000CBFF25E0208804280AD12389A28861889E
:1045E0002846FFF794FFE1882846FFF783FF17E08E
:1045F000208808280AD12389A28861882846FFF7E5
:1046000055FFE1882846FFF748FF09E02389A28883
:1046100061882846FFF719FFE1882846FFF708FF61
:1046200070BD002101804180012181800021C18075
:10463000018170472DE9F04105460C46002601270F
:10464000608808B9022600E00026A088012801D170
:10465000022700E001272088A0B92389A288618869
:104660002846FFF78AFFE1882846FFF77DFF238968
:104670003A4631462846FFF74AFFE1882846FFF7C9
:1046800039FF13E02389A28861882846FFF73FFF9E
:10469000E1882846FFF72EFF23893A46314628460F
:1046A000FFF76BFFE1882846FFF75EFFBDE8F0816A
:1046B0000146486B70470146886B70470146C86BDE
:1046C00070470146086C70470A884B881A438B88EC
:1046D0001A43CB881A430B891A434B891A438B8997
:1046E0001A43A0F844207047002101804180818056
:1046F000C180018141818181704731B1B0F844208E
:1047000042F40042A0F8442005E0B0F84420C2F38F
:104710000E02A0F84420704721B1828842F00402C2
:10472000828004E082884FF6FB731A4082807047D3
:1047300021B1828842F00102828004E082884FF633
:10474000FE731A40828070471AB183890B438381BC
:1047500002E083898B4383817047818270470246E0
:104760000020138A0B400BB1012000E000207047AD
:10477000CA430282704730B502460020002300245D
:10478000158A05EA0103958905EA010413B10CB104
:10479000012000E0002030BDCA430282704741EA98
:1047A0000203A0F8483070471AB183890B43838114
:1047B00002E083898B438381704721B1828842F074
:1047C0000802828004E082884FF6F7731A408280E4
:1047D000704701894FF6F8721140018170470A460F
:1047E000002101894FF68F731940114301817047F1
:1047F00030B504460D4629462046FFF7F0FF2089D4
:1048000040F00700208130BD2DE9F04104460D46FF
:1048100016461F46602D06D13B46012231462046F2
:10482000FFF775FE05E03B46012231462046FFF7C3
:10483000A4FE29462046FFF7D2FF208940F007005A
:104840002081BDE8F08130B50C4600210189C9B254
:104850004FF6FF7505EA03251543254329430181DA
:1048600030BD2DE9F04105460E4617469846002416
:1048700043463A4631462846FFF7E5FF2C894FF676
:10488000F870044044F007044FF68F70044044F081
:1048900070042C81BDE8F081F0B504460D46164643
:1048A0001F463B46324629462046FFF7CCFF20896B
:1048B00040F480402081F0BD82884FF68F731A400B
:1048C000828082880A438280704702894FF6F8739B
:1048D0001A40028102890A430281704702894FF619
:1048E0007F731A40028102890A4302817047F0B542
:1048F0000C4615461E460021002200230189028B2A
:10490000038C4FF6F877394021434FF6FC473A4085
:1049100040F201173A434FF6DD773B404FF6FF7701
:1049200007EA06172F433B43018102830384F0BD4E
:1049300021B1828842F08002828004E082884FF6B2
:104940007F731A4082807047A0F8501070470000B3
:1049500010B501214020FEF7A7FE00214020FEF700
:10496000A3FE10BD30B12149096841F004011F4A7E
:10497000116005E01D49096821F004011B4A11601E
:1049800070471A4808300068704730B11749096805
:1049900041F00801154A116005E01449096821F049
:1049A0000801124A11607047014600200F4A121D8B
:1049B00012680A400AB1012000E0002070476FEA47
:1049C00000110A4A121D1160704701460020074A73
:1049D000121D12680A400AB1012000E00020704751
:1049E000C143C9B2014A121D116070470008065048
:1049F0000649074A0868504343F2390210440860E8
:104A000040087047014908607047000044000020DA
:104A10006D4EC641D2B201E000F8012B491EFBD217
:104A200070470022F6E710B513460A4604461946B9
:104A3000FFF7F0FF204610BD30B50B4601460020C1
:104A40002022012409E021FA02F59D4205D303FA50
:104A500002F5491B04FA02F52844151EA2F10102D1
:104A6000F1DC30BD00207047064C074D06E0E068E1
:104A700040F0010394E8070098471034AC42F6D3A5
:104A8000FBF786FBC8F50608E8F506080FB4084BE7
:104A900010B504A902AA039800F0ACFB044602A9D1
:104AA000002000F051FC204610BC5DF814FB000013
:104AB000495300084100080218BF04200A0E18BF1D
:104AC00040F001004FF07F4232EA010108BF40F0A0
:104AD0000200012808BF05207047000010B510EE45
:104AE000100A2DED068BB7EE001A10EE901AB0EEFC
:104AF000418A0022A0F5000CDFEDFE9A4FF0007312
:104B0000BCF1FE4F4FF07F4403EB410C80F0B481C9
:104B1000BCF1804FC0F02082F74901449FEDF73A85
:104B2000B1F5005F40F2D48200F58021CB0C03F098
:104B30000F0101EE901AC3F307137F3BA0EBC350A4
:104B4000B8EEE12A00EE100A1A44DFEDED2AF0EE8D
:104B5000411A42EE221AF0EE613A70EE232A30EE4C
:104B6000632A12EE900A00F500606FF30B0001EE6D
:104B7000900A73EEE13A33EE804AC1EE223A22EE19
:104B8000230A10EE100A00F500606FF30B0000EE30
:104B9000100A00EE612A00EE442A62EE232A70EE2B
:104BA000221A21EEA12ADFEDD73A02EE233A23EEB4
:104BB000023A20EE012A22EE811A03EE211A32EE89
:104BC000010A10EE100A00F500606FF30B0000EE12
:104BD000100A72EE401A31EE812A9FEDCB1A60EE78
:104BE000011A9FEDCA1A20EE011A9FEDC90A02EEC2
:104BF000001A31EE810A10EE100A00F500606FF322
:104C00000B0000EE100AC34871EEC01A31EE812A83
:104C1000784400EBC10090ED003AD0ED011A10018C
:104C200001EE100AF8EEC12A32EE211A31EE001A16
:104C300031EE031A31EE221A11EE100A00F500606F
:104C40006FF30B0009EE100A39EE621A31EE431AC7
:104C500031EE400A30EE610A32EE40AA10EE900AC0
:104C6000002100F500606FF30B0008EE900A084683
:104C700070EEE8AAFFF7F6FE29EE280A00F00C0114
:104C8000F0EEC00A10EE900AB0F18B4F0DDD10EE81
:104C9000900AB4EB400F08D310EE100A4FF08B428D
:104CA00062F31E0008EE900A13E069EE2A0A38EE5D
:104CB000AA1A4AEE010A30EE201A11EE100A00F587
:104CC00000606FF30B0008EE900A30EE680A70EE99
:104CD000209A0C20FFF7C6FE38EEA90AB5EEC00AEE
:104CE000F1EE10FA34BFFEEE000AF6EE000A30EEE6
:104CF000800ABDEEC00A10EE100A011100EE101A73
:104D0000F8EEC00A00EE100AB8EEC00A38EEC00A8B
:104D100030EE290ADFED801A9FED801A00EE211A8D
:104D2000DFED7F1A7F4900F00F0040EE011A21EEFF
:104D3000800A794401EB800191ED001A7A497944A7
:104D400001EB8001D1ED001A784901EE801A794417
:104D500001EB8000764990ED000A31EE001AB0EECA
:104D6000E00A10EE100A884215DA10EE100AB4EBD1
:104D7000400F10D39FED6F0A30EE800ADFED6E0A10
:104D800020EE200A68EE010ABDEC068BBCEEC00ADC
:104D900020EE200A10BD10EE100A6849884243DA5E
:104DA00010EE100AB4EB400F3ED3BDEEE00A68EE01
:104DB000010A10EE100A00EBD0725110C90501F182
:104DC0007E5100EE101AA0EB6200C00560EE200AD2
:104DD00000F17E5000EE100A60EE808A18EE900A14
:104DE000B4EB400F0FD1022000F0FEF900F0DCF927
:104DF00010EE101A18EE100ABDEC068B61F31E00BF
:104E000000EE100A10BD18EE900A400011D018EE06
:104E1000900AFFF74FFE042808BF00F0CDF9B0EE6E
:104E2000680ABDEC068B10BDF5EEC00AF1EE10FA73
:104E30000FD2022000F0D8F900F0BEF910EE101ADF
:104E400018EE100ABDEC068B61F31E0000EE100A8E
:104E500010BD022000F0C8F900F0A6F910EE101AFB
:104E6000B0EE480A10EE100ABDEC068B61F31E008E
:104E700000EE100A10BD00BFBCF1804F6CD300BF24
:104E800000F1FF43B3F1FE4F24D200BFB0EEC00AE1
:104E900010EE100AC1F3C7537F2B0DDB972BBFF623
:104EA0003BAEC3F196034FF0010C0CFA03F3A3F1F0
:104EB000010C1CEA010F08D0012000F095F9BDECAF
:104EC000068BBDE8104000F067B90B4218BFBFEE7B
:104ED000008A21E643001CBF4FF08073B3EB400F04
:104EE00034D96FF01A02DFED161A20EE210A10EE07
:104EF000100A27E000000000001080C0ABAAAA3E04
:104F00000000803D7EE24C3E00B03842D49AB8BBEF
:104F10003BAA384274A80600FC596337C9FF753AAA
:104F20001872313D12A8060046A80600B6A7060072
:104F30000000FC420000FE420000004B0000404325
:104F40000000004D10F0004FA0D1E5E5A0F50003F2
:104F5000B3F1FE4F21D2DFE503EB4103B3F1007F54
:104F600011D3F5EEC00AF1EE10FA05D1430018BFD7
:104F7000B4EB400F76D883E701F0004141F0FC51DB
:104F800000EE901A7CE7B3F1807F06D210EE903AE3
:104F9000A3F5000300EE903A72E720F000426FF0B4
:104FA000FF4C604C02EB0C03A34210D321F00043F2
:104FB0009C44A4450BD3B0F17E5F18BF5FEA410C5F
:104FC00050D0B2F1FF4F98BFB3F1FF4F05D9BDEC00
:104FD000068BBDE8104000F0DBB8B0F1FF4F0FD0FA
:104FE000C1F3C7527F2A09DB972A11DAC2F1960270
:104FF000012303FA02F2531E0B4205D0002208E0FF
:1050000011F0004F55D128E00A4218BF012200D10B
:10501000022210F5000F13D028B3B0F1004F26D0B4
:1050200010F1814F4FD04FF0FE42B2EB400F94BFD2
:1050300001200020012202EBE171884239D10CE00D
:1050400011F0004F02D0012A38D032E0012A02BF0D
:105050009FED350ABDEC068B10BD9FED340ABDEC0B
:10506000068B10BD2FE011F0004F0CD121E0B1F103
:10507000FF4F1ED011F5000F05D011F0004F15D0D5
:105080000AB1012A08D0022000F0AEF8BDEC068B70
:10509000BDE8104000F072B8022000F0A5F800F062
:1050A0006DF8BDEC068BB1EE400A10BD0AB1012AC5
:1050B00004D0B0EE690ABDEC068B10BDBDEC068BCA
:1050C0009FED1B0A10BDBDEC068BB7EE000A10BDAC
:1050D00030EE410AB5EE001A9FED172A00EE413A74
:1050E000B6EE001A60EE001A00EE431A61EEC11A25
:1050F0009FED101A20EE011A20EE020A9FED0F2AF2
:1051000001EE820A71EE001A11EE900A00F50060BD
:105110006FF30B0009EE100A31EE491A31EE00AAC6
:105120009CE50000FFFF3F00000080FF0000807F43
:105130000000008000B0B841D49A38BB3BAAB84107
:1051400010B52DED028BB1EEC08A18EE100A20F0DA
:105150000040C0F1FF40C00F0AD010EE100A20F04E
:105160000040C0F1FF40C00F04BF012000F03CF838
:10517000B0EE480ABDEC028B10BD0000DFED030A63
:10518000B7EE001A81EE200A704700000000000010
:1051900030EE200A70470000DFED020A80EEA00A20
:1051A00070470000000000009FED020A20EE000A98
:1051B00070470000000000709FED020A20EE000A18
:1051C000704700000000001002E008C8121F08C16C
:1051D000002AFAD170477047002001E001C1121F78
:1051E000002AFBD1704700000149086070470000A9
:1051F000480000202DE9FF4F89B09B46044600255A
:1052000006E025280BD05A460B999047641C6D1C6C
:1052100020780028F5D10DB02846BDE8F08F002792
:10522000B8460122474900E0074314F8013F203BFC
:1052300002FA03F00842F7D120782E2819D114F889
:10524000010F47F004072A280ED06FF02F022078B4
:10525000A0F1300109290CD808EB880102EB4101CB
:1052600000EB0108641CF2E70A98641C50F8048BF8
:105270000A9020780028CED0642808D0692806D06B
:1052800075281ED05A460B9990476D1C58E00A9914
:105290004FF00A0901C90A91002802DA40422D2183
:1052A00002E0390504D52B218DF82010012103E0FF
:1052B000F90704D02021F7E78A4608AE0DE0002167
:1052C000FAE70A994FF00A0901C90A91F7E7494636
:1052D000FFF7B2FB303106F8011D0028F7D1ADEB26
:1052E000060000F12009780701D44FF00108C845F5
:1052F00002DDA8EB090000E000208046002706E060
:1053000008A85A46C05D0B9990476D1C7F1C5745F5
:10531000F6DB04E030205A460B9990476D1CB8F13B
:105320000001A8F10108F5DC05E016F8010B5A466A
:105330000B9990476D1CB9F10001A9F10109F4DC4A
:10534000641C65E7092801000A68531C0B60107093
:105350007047000000000000000000000000000096
:105360000404040404000004000014140A000000F3
:1053700000000000000000000A0A1F0A0A1F0A0AB3
:10538000000000040E1505060C14150E04000000A4
:1053900012150D152E2C2A1200000000040A0A36E0
:1053A000151529160000020201000000000000008F
:1053B0000000100808040404040408081000020493
:1053C0000408080808080404020000000004150E80
:1053D0000E150400000000000008083E0808000048
:1053E00000000000000000000000020201000000B8
:1053F0000000003F0000000000000000000000006E
:10540000000000020000002010100808040402023E
:10541000010000000E1111111111110E0000000009
:10542000040604040404040E000000000E11110818
:105430000402011F000000000E11100C1010110ECC
:1054400000000000080C0C0A091F081C00000000E6
:105450001F01010F1110110E000000000C12010DB0
:105460001311110E000000001E10080804040404AB
:10547000000000000E11110E1111110E00000000AD
:105480000E1111191610090600000000000004009A
:105490000000000400000000000000040000000400
:1054A00004000000100804020204081000000000BC
:1054B00000003F003F000000000000000204081050
:1054C00010080402000000000E111108040400047A
:1054D000000000001C22292D2D1D221C00000000B0
:1054E00004040C0A0A1E1233000000000F12120EF0
:1054F0001212120F000000001E1101010101110E15
:10550000000000000F1212121212120F0000000011
:105510001F120A0E0A02121F000000001F120A0EBC
:105520000A020207000000001C1201013911120CCE
:10553000000000003312121E12121233000000008D
:105540001F0404040404041F000000003E080808AF
:10555000080808080907000037120A060A1212375D
:1055600000000000070202020202223F00000000C9
:105570003B1B1B1B15151535000000003B121616B2
:105580001A1A1217000000000E1111111111110E3C
:10559000000000000F12120E0202020700000000BD
:1055A0000E1111111117190E180000000F12120E12
:1055B0000A121237000000001E1101060810110F18
:1055C000000000001F1504040404040E0000000085
:1055D000331212121212120C000000003312120ABF
:1055E0000A0C040400000000151515150E0A0A0A1D
:1055F000000000001B0A0A04040A0A1B0000000045
:105600001B0A0A0A0404040E000000001F09080413
:105610000402121F00001C04040404040404040413
:105620001C000002020404040808081010000E0800
:1056300008080808080808080E00040A000000000E
:10564000000000000000000000000000000000005A
:10565000003F020400000000000000000000000005
:105660000000000C121C123C000000030202020E9B
:105670001212120E000000000000001C1202120C98
:10568000000000181010101C1212123C0000000044
:105690000000000C121E021C000000182404041E4E
:1056A0000404041E000000000000003C120C021C58
:1056B000221C00030202020E121212370000000424
:1056C000040000060404040E000000080800000C9A
:1056D00008080808080700030202021A0A060A134B
:1056E00000000007040404040404041F0000000078
:1056F0000000000F15151515000000000000000F38
:1057000012121237000000000000000C1212120CDE
:10571000000000000000000F1212120E020700002D
:105720000000001C1212121C103800000000001BA8
:1057300006020207000000000000001E020C101EFE
:10574000000000000004041E0404041C000000000B
:105750000000001B1212123C000000000000001BA1
:105760000A0A04040000000000000015150E0A0AD1
:10577000000000000000001B0A040A1B00000000DB
:105780000000003312120C08040300000000001E89
:105790000804041E000018080808080C0808080877
:1057A0001800080808080808080808080808060477
:1057B00004040408040404040600160900000000A0
:1057C00000000000000000000000000000000000D9
:1057D0000000000000000000000808080808080891
:1057E00000001818000000486C241200000000009F
:1057F0000000000000000000002424247F12121288
:105800007F12121200000000081C2A2A0A0C182815
:10581000282A2A1C080800000022251515152A58D8
:105820005454542200000000000C1212120A762573
:105830002911916E0000000606040300000000001C
:1058400000000000000000402010100808080808B0
:10585000081010204000000204080810101010105A
:105860001008080402000000000008086B1C1C6BF4
:1058700008080000000000000000080808087F0871
:105880000808080000000000000000000000000000
:105890000000060604030000000000000000FE00F7
:1058A00000000000000000000000000000000000F8
:1058B0000000060600000000804040202010100874
:1058C000080404020200000000182442424242423E
:1058D000424224180000000000080E0808080808CA
:1058E0000808083E00000000003C42424220201010
:1058F0000804427E00000000003C42422018204084
:105900004042221C000000000020302824242222D3
:105910007E20207800000000007E0202021A26404D
:105920004042221C0000000000382402021A2642D5
:105930004242241800000000007E222210100808B5
:105940000808080800000000003C424242241824D5
:105950004242423C00000000001824424242645887
:105960004040241C00000000000000001818000047
:1059700000001818000000000000000000080000EF
:105980000000000808040000004020100804020481
:105990000810204000000000000000007F00000010
:1059A0007F000000000000000002040810204020DA
:1059B0001008040200000000003C42424640201053
:1059C0001000181800000000001C225A55555555AB
:1059D0002D42221C00000000000808181414243C6A
:1059E000224242E700000000001F2222221E224223
:1059F0004242221F00000000007C424201010101DE
:105A00000142221C00000000001F2242424242428A
:105A10004242221F00000000003F4212121E1212DA
:105A20000242423F00000000003F4212121E1212CA
:105A30000202020700000000003C22220101017165
:105A40002122221C0000000000E7424242427E4226
:105A5000424242E700000000003E0808080808082B
:105A60000808083E00000000007C10101010101004
:105A700010101010110F0000007722120A0E0A12E7
:105A80001222227700000000000702020202020236
:105A90000202427F000000000077363636362A2A9E
:105AA0002A2A2A6B0000000000E346464A4A525266
:105AB0005262624700000000001C22414141414106
:105AC0004141221C00000000003F424242423E028F
:105AD0000202020700000000001C22414141414136
