:020000040800F2
:10000000A05F0020052300084B0300084D030008F3
:100010006D0300087103000875030008000000006C
:10002000000000000000000000000000790300084C
:100030007B030008000000007D0300087F03000828
:100040001F2300081F2300081F2300081F23000888
:100050001F2300081F2300081F2300081F23000878
:100060001F2300081F2300081F2300081F23000868
:100070001F2300081F2300081F2300081F23000858
:100080001F2300081F2300081F2300081F23000848
:100090001F2300081F2300081F2300081F23000838
:1000A0001F2300081F2300081F2300081F23000828
:1000B0001F2300081F2300081F2300081F23000818
:1000C0001F2300081F2300081F2300081F23000808
:1000D0001F230008D32000081F2300081F23000847
:1000E0001F2300081F2300081F2300081F230008E8
:1000F0001F2300081F2300081F2300081F230008D8
:100100001F2300081F2300081F2300081F230008C7
:100110001F2300081F2300081F23000825220008B2
:100120001F2300081F2300081F2300081F230008A7
:100130001F2300081F2300081F2300081F23000897
:100140001F2300081F2300081F2300081F23000887
:100150001F2300081F2300081F2300081F23000877
:100160001F2300081F2300081F2300081F23000867
:100170001F2300081F2300081F2300081F23000857
:100180001F2300081F230008DFF810D004F0E2F856
:1001900000480047A1010008AFF30080A05F0020E5
:1001A0000EB500BFC8274FF018084FF004094FF0F4
:1001B000000AA82001F08DFE00F04BFA00F015FBBC
:1001C00002F06AF802F028F80020A02380220146FD
:1001D000009000F0F9FB01F034FA4FF42870C4F2FB
:1001E00040200068C0430021C4F24021C1F8A002B1
:1001F000002456E002F032F8204600F07BFE002595
:100200000AE0284601F068F901F07BFA01F0C6FA2D
:10021000284600F0ACFE6D1CB5F5DA7FF1DB02F08C
:100220002CF806460A2096FBF0F040F23001C2F2AC
:100230000001096801EB4102C2EBC11100EBC106EC
:100240003146204600F0CDFE002040F23001C2F2DF
:1002500000010860002505E0284601F0A4F901F03E
:10026000A1FC6D1CB5F55A6FF6DB01F0B2F8002069
:1002700040F21401C2F20001086040F21801C2F21B
:100280000001086040F22001C2F20001086040F263
:100290001C01C2F20001086041F2883001F087FEC3
:1002A000641C962CA6DB4FF6FF7094237F2230212E
:1002B00000900C2000F011FC082000214FF6FF7286
:1002C0000323CDE9002102903A463021002000F0BE
:1002D0006DFD082000214FF6FF720123CDE90021BA
:1002E000029052469421062000F060FD0820002173
:1002F0004FF6FF720223CDE900210290424696217B
:10030000642000F053FD082000214FF6FF72012306
:10031000CDE9002102904A469621782000F046FD62
:1003200000240BE0204601F03EF901F03BFC00F018
:10033000B9FE4FF4FA7001F03AFE641CB4F55A6F3E
:10034000F0DB01F046F800BFFEE770470DE04FF428
:100350002870C4F240200068C0430021C4F240214C
:10036000C1F8A002642001F022FEF0E700BFFEE722
:1003700000BFFEE700BFFEE7704770477047704759
:100380000CB50020019000904FF46050C4F20200C0
:10039000006840F480304FF46051C4F202010860FC
:1003A00000BF4FF46050C4F20200006800F4003057
:1003B00000900198401C0190009818B90198B0F580
:1003C000A04FEED14FF46050C4F20200006800F478
:1003D000003010B10120009001E000200090009852
:1003E000012863D14FF46150C4F20200006840F06C
:1003F00080504FF46151C4F2020108604FF4E040B4
:10040000C4F20000006840F440404FF4E041C4F200
:100410000001086043F60800C4F20200006843F6D9
:100420000801C4F2020108600846006840F4004078
:1004300008600846006840F4A050086045F2084093
:10044000C0F24070091F0860081F006840F080700B
:10045000091F086000BF4FF46050C4F2020000683A
:1004600000F000700028F6D040F205704FF4705193
:10047000C4F20201086043F60800C4F202000068FA
:1004800020F0030043F60801C4F2020108600846A8
:10049000006840F00200086000BF43F60800C4F2A4
:1004A0000200006800F00C000828F6D10CBD10B561
:1004B0004EF68850CEF20000006840F470004EF610
:1004C0008851CEF2000108604FF46050C4F202007F
:1004D000006840F001004FF46051C4F2020108606E
:1004E000002043F60801C4F2020108604FF4605096
:1004F000C4F20200006820F4102020F080704FF455
:100500006051C4F20201086043F21000C2F20040E0
:10051000091D0860081F006820F48020091F08607A
:10052000002043F60C01C4F202010860FFF728FF27
:100530004FF000604EF60851CEF20001086010BD89
:1005400070B50020002202230024022143F6080592
:10055000C4F202052D6805F00C0020B104280CD06F
:10056000082853D113E04FF41055C0F2F40540F2BF
:100570000006C2F20006356052E04FF49055C0F21A
:100580007A0540F20006C2F20006356048E043F604
:100590000405C4F202052D68C5F3805443F6040532
:1005A000C4F202052D6805F03F017CB14FF490556F
:1005B000C0F27A05B5FBF1F543F60406C4F2020673
:1005C0003668C6F3881605FB06F20EE04FF41055A8
:1005D000C0F2F405B5FBF1F543F60406C4F20206D9
:1005E0003668C6F3881605FB06F243F60405C4F226
:1005F00002052D68C5F301456D1C6B00B2FBF3F5D8
:1006000040F20006C2F20006356009E04FF41055D2
:10061000C0F2F40540F20006C2F20006356000BFE9
:1006200000BF43F60805C4F202052D68C5F30315A3
:1006300040F20406C2F20006705D40F20005C2F20C
:1006400000052D68C54040F20006C2F20006356084
:1006500070BD1CB50121084602F0B7FA4FF4807056
:10066000009001208DF8040000208DF80600032082
:100670008DF8050001208DF8070069460020C4F2BE
:10068000020001F077FF01204FF42871C4F24021ED
:1006900008601CBD1CB50121022002F096FA4FF43F
:1006A0006C70009001208DF8040000208DF8060089
:1006B00003208DF8050001208DF8070069464FF4EE
:1006C0008060C4F2020001F055FF4020009000203D
:1006D0008DF8040003208DF8050001208DF8070037
:1006E00069464FF48060C4F2020001F043FF1CBD74
:1006F00070B5044680214FF48060C4F2020001F01E
:10070000B7FF002527E04FF480714FF48060C4F2FA
:10071000020001F0ADFF04F0800040B14FF4007121
:100720004FF48060C4F2020001F0A0FF07E04FF434
:1007300000714FF48060C4F2020001F099FF4FF4A1
:1007400080714FF48060C4F2020001F08FFF6006F8
:10075000040E681CC5B2082DD5DB80214FF48060E3
:10076000C4F2020001F082FF70BD10B504462046BD
:10077000FFF7BEFF10BD10B504462012FFF7B8FF0B
:10078000E0B2FFF7B5FF10BD10B5044620214FF4CD
:100790008060C4F2020001F06BFF2046FFF7A8FF63
:1007A00020214FF48060C4F2020001F05FFF10BD11
:1007B0002DE9F04107460C4615461E462A20FFF754
:1007C000E3FF3846FFF7D7FF2846FFF7D4FF2B207B
:1007D000FFF7DAFF2046FFF7CEFF3046FFF7CBFFEB
:1007E0002C20FFF7D1FFBDE8F08110B5FFF752FFD5
:1007F00010214FF48060C4F2020001F037FF642042
:1008000001F0D5FB1120FFF7BFFF782001F0CFFBEF
:10081000B120FFF7B9FF0520FFF7A7FF3C20FFF746
:10082000A4FF3C20FFF7A1FFB220FFF7ADFF05209A
:10083000FFF79BFF3C20FFF798FF3C20FFF795FF59
:10084000B320FFF7A1FF0520FFF78FFF3C20FFF744
:100850008CFF3C20FFF789FF0520FFF786FF3C2037
:10086000FFF783FF3C20FFF780FFB420FFF78CFFEA
:100870000320FFF77AFFC020FFF786FF2820FFF74D
:1008800074FF0820FFF771FF0420FFF76EFFC120FF
:10089000FFF77AFFC020FFF768FFC220FFF774FF61
:1008A0000D20FFF762FF0020FFF75FFFC320FFF777
:1008B0006BFF8D20FFF759FF2A20FFF756FFC4205A
:1008C000FFF762FF8D20FFF750FFEE20FFF74DFF8F
:1008D000C520FFF759FF1A20FFF747FF3620FFF723
:1008E00053FFC020FFF741FFE020FFF74DFF04203A
:1008F000FFF73BFF2220FFF738FF0720FFF735FF08
:100900000A20FFF732FF2E20FFF72FFF3020FFF7DE
:100910002CFF2520FFF729FF2A20FFF726FF28209C
:10092000FFF723FF2620FFF720FF2E20FFF71DFFF4
:100930003A20FFF71AFF0020FFF717FF0120FFF70B
:1009400014FF0320FFF711FF1320FFF70EFFE12034
:10095000FFF71AFF0420FFF708FF1620FFF705FF37
:100960000620FFF702FF0D20FFF7FFFE2D20FFF707
:10097000FCFE2620FFF7F9FE2320FFF7F6FE2720D6
:10098000FFF7F3FE2720FFF7F0FE2520FFF7EDFE2F
:100990002D20FFF7EAFE3B20FFF7E7FE0020FFF7E0
:1009A000E4FE0120FFF7E1FE0420FFF7DEFE132046
:1009B000FFF7DBFE3A20FFF7E7FE0520FFF7D5FE45
:1009C0002920FFF7E1FE10BD2DE9F04706460F464E
:1009D00014461D46DDF820A0681E83B2601E82B258
:1009E00039463046FFF7E4FEB8460EE0B14606E071
:1009F0005046FFF7C0FE09F101001FFA80F9A1453A
:100A0000F6DB08F101001FFA80F8A845EEDBBDE82F
:100A1000F08770B504460D4616462B4622462946F9
:100A20002046FFF7C5FE3046FFF7A5FE70BD2DE955
:100A3000FF4F85B081468A46002003908346079881
:100A4000A0EB09050898A0EB0A06CDF80890CDF8B0
:100A500004A0002D01DD012705E00DB9002702E00B
:100A60004FF0FF376D42002E02DD4FF0010806E027
:100A700016B94FF0000802E04FF0FF387642B54259
:100A800001DD2C4600E03446002004901EE0019A6F
:100A900091B2029A90B2129AFFF7BBFF03982844D2
:100AA0000390B3440398A04205DD0398001B039014
:100AB000029838440290A34504DDABEB040B019887
:100AC000404401900498401C80B20490611C04983A
:100AD0008842DCDB09B0BDE8F08F2DE9F84305461C
:100AE0000E4617469846089C33463A4631462846F5
:100AF0000094FFF79CFF43462A463146284600945F
:100B0000FFF795FF43463A46414628460094FFF7D3
:100B10008EFF43463A46314638460094FFF787FF3A
:100B2000BDE8F8832DE9F84F05460E46174698466E
:100B3000DDE90A9A0C9C43463A4631462846009421
:100B4000FFF775FF53464A46314628460094FFF7A3
:100B50006EFFBDE8F88F2DE9F04706460F46904638
:100B600099460025444641E07A1B91B2321B90B26F
:100B70004A46FFF74EFF7A1B91B2321990B24A46AD
:100B8000FFF747FF3A1991B2721B90B24A46FFF73E
:100B900040FF3A1B91B2721B90B24A46FFF739FFF1
:100BA0007A1991B2321990B24A46FFF732FF3A1BD6
:100BB00091B2721990B24A46FFF72BFF3A1991B2DF
:100BC000721990B24A46FFF724FF7A1991B2321B8C
:100BD00090B24A46FFF71DFF6D1C05FB05F004FBB4
:100BE000040108FB08F0814200DD641EA542BBDD64
:100BF000BDE8F0872DE9FF5F80468A4617469B4691
:100C00000F9D00200290CDF80080284605EBD071A2
:100C1000C1F347042046E21704EB5272D21021467A
:100C2000E31704EB5373DB10A4EBC3030BB10123F5
:100C300000E000231A446A4392B20192A7F1200017
:100C4000C7B20AEB0500401E83B208EB0400401E49
:100C500082B251464046FFF7ABFD002675E00C2DF1
:100C60000AD107EB470044F29A61C0F6000101EB9C
:100C70008000805D039024E0102D08D144F60E30F2
:100C8000C0F6000000EB0710805D039019E0182DFE
:100C90000AD107EB470045F2FE01C0F6000101EB67
:100CA0000010805D03900CE0202D08D146F2CE208C
:100CB000C0F6000000EB8710805D039001E0BDE806
:100CC000FF9F4FF000093AE01098C8B9012000FAE0
:100CD00009F00399084018B15846FFF74CFD02E0AF
:100CE0000E98FFF748FD0298401CC0B2029002988F
:100CF00090FBF4F104FB1100E8B90020029021E020
:100D0000012000FA09F00399084020B15A465146E3
:100D10004046FFF77EFE08F101001FFA80F80098B8
:100D2000A8EB0000A04206D1DDF800800AF1010026
:100D30001FFA80FA06E009F1010000F0FF09B9F19D
:100D4000080FC1DB00BF701C86B20198864286DBAB
:100D500000BFB4E72DE9FE4F06460F4614469846FD
:100D6000DDE90D5ADDF8309010E0CDE9015ACDF8FB
:100D700000902278434639463046FFF73BFF28462D
:100D800005EBD07106EB61018EB2641C207800285F
:100D9000EBD1BDE8FE8F10B50246012000E05043C4
:100DA0000B1EA1F10104E1B2F9D110BD2DE9FF4FF5
:100DB00085B0074691461D46DDE913A60020049044
:100DC000304606EBD071C1F3470B002434E0281BFA
:100DD000401EC1B20A20FFF7DEFFB9FBF0F00A2186
:100DE000B0FBF1F201FB12080498A0B9681EA04202
:100DF00011DDB8F1000F0CD1002004FB0B71CDE91F
:100E000000A6029088B22022129B0699FFF7F2FEFC
:100E100010E001200490002008F13001CAB204FB68
:100E20000B71CDE900A6029088B2129B0699FFF7DC
:100E3000E1FE00BF601CC4B2AC42C8DB09B0BDE833
:100E4000F08F2DE9FF4F2DED020B2DED028B83B0BE
:100E50000746B0EE408A1446DDE9148606EBD671EB
:100E6000C1F3470A0020C4F2C82000EE100A28EEA1
:100E7000000ABCEEC00A10EE100A1FFA80FB002523
:100E800030E0601B401EC1B20A20FFF784FFBBFBAD
:100E9000F0F00A21B0FBF1F201FB1209A01EA842FA
:100EA00010D10020A11E01FB0A71CDE9008602903D
:100EB00088B22E220A9B0899FFF79CFE681CC5B2D7
:100EC000601CC4B2002009F13001CAB205FB0A71EE
:100ED000CDE90086029088B20A9B0899FFF78AFE46
:100EE000681CC5B2A542CCDB03B0BDEC028B06B0DA
:100EF000BDE8F08F10B586B0044600203023802274
:100F000001460090FFF760FD00200C21CDE90001B3
:100F10004FF6FF734EF2C472C0F60602014602900D
:100F2000FFF718FF22464EF2CC71C0F6060103A867
:100F300003F09EFA00200C21CDE900014FF6FF736B
:100F400003AA014602902420FFF704FF00200C2191
:100F5000CDE900014FF6FF734EF2D072C0F60602E3
:100F6000014602903620FFF7F5FE06B010BD10B521
:100F700086B004460020182380220C210090FFF741
:100F800023FD00200C21CDE900014FF6FF734EF246
:100F9000DC72C0F606020290FFF7DCFE22464EF23B
:100FA000CC71C0F6060103A803F062FA00200C2100
:100FB000CDE900014FF6FF7303AA02902420FFF74A
:100FC000C9FE00200C21CDE900014FF6FF734EF25F
:100FD000E472C0F6060202903620FFF7BBFE06B0B0
:100FE00010BD30B58BB004460D460020242380226E
:100FF00018210090FFF7E8FC00200C21CDE900014A
:101000004FF6FF734EF2C472C0F60602182102902A
:10101000FFF7A0FE22464EF2CC71C0F6060108A8EA
:1010200003F026FA00200C21CDE900014FF6FF73F2
:1010300008AA182102902420FFF78CFE00200C2122
:10104000CDE900014FF6FF734EF2F072C0F60602D2
:10105000182102903620FFF77DFE2A464EF2CC7111
:10106000C0F6060103A803F003FA00200C21CDE925
:1010700000014FF6FF7303AA182102904220FFF7E8
:1010800069FE00200C21CDE900014FF6FF734EF2FE
:10109000F472C0F60602182102906620FFF75AFE8D
:1010A0000BB030BD70B5A4B00020302380220146C3
:1010B0000090FFF789FC002093237F2231210090CC
:1010C0000D20FFF781FC00200C21CDE900014FF637
:1010D000FF734EF2F872C0F6060201460290FFF767
:1010E00039FE00200C21CDE900014FF6FF734EF6CA
:1010F0000402C0F6060218210290FFF72BFE00241E
:1011000043E045F6E811C2F2000101EB840191EDE4
:10111000001A46F27E01C4F29D2100EE101A44F23C
:101120001471C4F2E81100EE901A00EE810ABDEECF
:10113000C00A10EE100A00EBD07149100CAA42F858
:10114000241054B90CA850F82400C0F1940081B2C6
:101150001F221020FFF75DFC16E01F200CAD009051
:1011600055F82450C5F19405ABB2A5001035AAB2CC
:10117000651E0CAE56F82550C5F19405A9B2A50020
:101180000C35A8B2FFF753FC641C182CB9DB002007
:1011900024E045F6B822C2F2000202EB800292ED92
:1011A000000ABDEEC00A10EE101A01EBD172521007
:1011B00008AB43F8202045F6C822C2F2000202EB39
:1011C000800292ED000ABDEEC00A10EE101A01EB8B
:1011D000D172521004AB43F82020401C0428D8DB05
:1011E000002486E045F6B820C2F2000000EB84003F
:1011F000D0ED000A0020C4F2C82000EE100AF4EE80
:10120000C00AF1EE10FA18D20C200021CDE900102E
:1012100045F6B821C2F2000101EB8401D1ED000ACC
:10122000B0EE600A04EB8401C904080C4FF6FF73AA
:1012300004220C21FFF705FE17E00C200021CDE968
:10124000001045F6B821C2F2000101EB8401D1ED96
:10125000000AB0EE600A04EB8401C904080C4FF6E2
:10126000FF7305220C21FFF7ECFD45F6C820C2F202
:10127000000000EB8400D0ED000A0020C4F2C8207A
:1012800000EE100AF4EEC00AF1EE10FA18D20C20AB
:101290000021CDE9001045F6C821C2F2000101EBA2
:1012A0008401D1ED000AB0EE600A04EB8401C904A8
:1012B000080C4FF6FF7304222421FFF7C2FD17E04C
:1012C0000C200021CDE9001045F6C821C2F2000132
:1012D00001EB8401D1ED000AB0EE600A04EB840159
:1012E000C904080C4FF6FF7305222421FFF7A9FD5E
:1012F000641C032CFFF676AF002466E05CBB1F2065
:10130000009004A850F82400C0F1940083B2239800
:10131000C0F1940081B270226C20FFF788FB08A80E
:1013200050F8240000284FDD08A850F82400642855
:101330004ADA4FF47840009008A850F82400C0F131
:10134000940083B22398C0F1940081B270226C2083
:10135000FFF76DFB38E01F2004AD009055F82450D6
:10136000C5F19405ABB2A5007035AAB2651E04AEF6
:1013700056F82550C5F19405A9B2A5006C35A8B260
:10138000FFF755FB08A850F8240000281CDD08A82A
:1013900050F82400642817DA4FF4784008AD009024
:1013A00055F82450C5F19405ABB2A5007035AAB22A
:1013B000651E08AE56F82550C5F19405A9B2A500E2
:1013C0006C35A8B2FFF733FB641C042C96DB24B009
:1013D00070BD0EB500203023802201460090FFF73B
:1013E000F3FA00200C21CDE900014FF6FF734EF611
:1013F0001002C0F6060201460290FFF7ABFC002087
:101400000C21CDE900014FF6FF734EF61802C0F62D
:1014100006020290FFF79EFC00200C21CDE900019E
:101420004FF6FF734EF62002C0F606021821029016
:10143000FFF790FC00200C21CDE900014FF6FF736F
:101440004EF62802C0F6060224210290FFF782FC25
:101450000C2000214FF6FF730622CDE9001040F268
:101460001400C2F2000090ED000A1E20FFF7E9FC14
:101470000C2000214FF6FF730622CDE9001040F248
:101480001800C2F2000090ED000A0C211E20FFF7A8
:10149000D8FC0C2000214FF6FF730622CDE9001086
:1014A00040F21C00C2F2000090ED000A18211E203C
:1014B000FFF7C7FC0C2000214FF6FF730622CDE991
:1014C000001040F22000C2F2000090ED000A24213A
:1014D0001E20FFF7B6FC0EBD30B5002160E00022F3
:1014E00019E001EB401313444CF24434C0F60404F9
:1014F00004EB830393ED000A01EB410303EBC1030B
:1015000044F2E814C2F2000404EB031303EB820379
:1015100083ED000A521C182AE3DB00223DE0002381
:1015200022E0182404EB4014144404EB840447F62E
:10153000E445C0F6000505EB840404EB830494ED58
:10154000000A01EB410404EBC10444F2E815C2F2C5
:10155000000505EB041502EB820418341C4405EB6E
:10156000840484ED000A5B1C052BDADB182303EBF3
:10157000401313444CF24434C0F6040404EB8303D8
:1015800093ED000A45F2E873C2F2000303EB011386
:1015900003EB820383ED000A521C042ABFDB491CC3
:1015A00020299CDB30BD10B50146002011E00A184F
:1015B0004BF2D403C0F6060303EB820292ED000A5D
:1015C00045F6E812C2F2000202EB800282ED000A48
:1015D000401C1828EBDB002030E000221AE001F16B
:1015E000180303EB830349F62464C0F6050404EBF7
:1015F000830303EB820393ED000A00EB80031833AF
:10160000134445F6E814C2F2000404EB830383EDAF
:10161000000A521C052AE2DB0A184BF2D403C0F67A
:10162000060303EB820292ED000A45F69822C2F20D
:10163000000202EB800282ED000A401C0428CCDB91
:1016400010BD70B52DED028B002428E0002523E0AD
:10165000002042F64841C2F2000141F82400642112
:1016600000F042FE00EE100AF8EEC00A0020C4F2BC
:10167000C82000EE100A80EE808AB6EE000A38EE2E
:10168000400A04EB451040F24801C2F2000101EBB0
:10169000800080ED000A6D1C2C2DD9DB641C202CF1
:1016A000D4DB002428E0002523E0002044F2C81108
:1016B000C2F2000141F82400642100F015FE00EEA2
:1016C000100AF8EEC00A0020C4F2C82000EE100A8A
:1016D00080EE808AB6EE000A38EE400A04EB850000
:1016E00043F6C851C2F2000101EB800080ED000A10
:1016F0006D1C202DD9DB641C042CD4DBBDEC028BCB
:1017000070BD10B5002000EE100A00BF43E00021BC
:101710003EE042F64842C2F2000202EB8102D2ED04
:10172000000AB0EE600A00221EE000EB400303EB6B
:10173000C00344F2E814C2F2000404EB031303EB09
:10174000820393ED001A01EB421340F24804C2F207
:10175000000404EB8303D3ED001AF0EE400A41EEDF
:10176000210AB0EE600A521C2C2ADEDBB5EEC00A5C
:10177000F1EE10FA02DD10EE102A00E0002201EB7B
:10178000401342F64854C2F2000444F82320491C96
:101790002029BEDB401C2028B9DB10BD1FB500206E
:1017A000009001900290039000EE100A00EE900A63
:1017B00000224DE1002047E0002100EE101A00BF9A
:1017C0001AE001EB421342F64854C2F2000404EB63
:1017D0008303D3ED001A00EB810343F6C854C2F231
:1017E000000404EB830393ED002AB0EE401A01EEEF
:1017F000821AB0EE410A491C2029E2DB45F6A821F5
:10180000C2F2000101EB800181ED000A45F2E871AE
:10181000C2F2000101EB021101EB800191ED001A0F
:1018200045F6A821C2F2000101EB8001D1ED001ABA
:1018300031EEC11AF6EE001A21EE211A694601EBCB
:10184000800181ED001A401C0428B5DB002059E01E
:10185000694601EB8001D1ED001A4CF6CD41C3F68B
:10186000CC5101EE101A21EE812A4FF0844101EE95
:10187000101AC2EE011A44F2D811C2F2000101EBB3
:10188000800191ED001A31EE811A44F2D811C2F2B2
:10189000000101EB800181ED001A00212FE042F6EA
:1018A0004853C2F2000303EB8103D3ED001A4CF658
:1018B000CD43C3F6CC5301EE103A21EE811A6B46AC
:1018C00003EB8003D3ED001A61EE211A4FF084433D
:1018D00001EE103A81EE812A00EB810343F6C874D1
:1018E000C2F2000404EB830393ED001A32EE011AF6
:1018F00000EB810304EB830383ED001A491C2029CC
:10190000CDDB401C0428A3DB002034E0002100EEE6
:10191000901A00BF15E001EB800343F6C854C2F2F1
:10192000000404EB8303D3ED001A6B4603EB810341
:1019300093ED002AB0EE601A01EE821AF0EE410A31
:10194000491C0429E7DB42F64851C2F2000101EBD1
:10195000800191ED001AB5EEC01AF1EE10FA02DD29
:1019600010EE901A00E0002143F64853C2F2000343
:1019700043F82010401C2028C8DB002065E043F617
:101980004851C2F2000101EB8001D1ED001A4CF682
:10199000CD41C3F6CC5101EE101A61EE811A4FF021
:1019A000844101EE101A81EE812A42F6C841C2F24A
:1019B000000101EB800191ED001A32EE011A42F6AE
:1019C000C841C2F2000101EB800181ED001A002143
:1019D00038E002EB420303EBC20344F2E814C2F224
:1019E000000404EB031303EB8103D3ED001A4CF660
:1019F000CD43C3F6CC5301EE103A21EE811A43F6E3
:101A00004853C2F2000303EB8003D3ED001A61EEEA
:101A1000211A4FF0844301EE103A81EE812A00EB47
:101A2000411341F24864C2F2000404EB830393EDD6
:101A3000001A32EE011A00EB411304EB830383ED2D
:101A4000001A491C2C29C4DB401C202897DB521C9F
:101A5000202AFFF6AFAE00204EE0002149E000EB67
:101A6000810243F6C853C2F2000303EB820292EDF7
:101A7000001A00EB810243F6C873C2F2000303EBC5
:101A80008202D2ED001A31EE611A00EB810243F6B8
:101A9000C853C2F2000303EB820282ED001A44F243
:101AA000C812C2F2000202EB800292ED001A44F268
:101AB000D812C2F2000202EB8002D2ED001A31EE1F
:101AC000611A44F2C812C2F2000202EB800282EDF7
:101AD000001A002200EB810343F6C874C2F200042E
:101AE00044F8232044F2D813C2F2000343F8202024
:101AF000491C2029B3DB401C0428AEDB00204EE04B
:101B0000002149E000EB411240F24803C2F2000319
:101B100003EB820292ED001A00EB411241F248639E
:101B2000C2F2000303EB8202D2ED001A31EE611A19
:101B300000EB411240F24803C2F2000303EB8202C1
:101B400082ED001A42F64842C2F2000202EB800225
:101B500092ED001A42F6C842C2F2000202EB800285
:101B6000D2ED001A31EE611A42F64842C2F200028A
:101B700002EB800282ED001A002200EB411341F2D9
:101B80004864C2F2000444F8232042F6C843C2F27B
:101B9000000343F82020491C2C29B3DB401C2028DB
:101BA000AEDB1FBD10B52DED068B90B0002008EE0A
:101BB000100A08EE900A0C900D900E900F9008906D
:101BC00009900A900B900490059006900790009061
:101BD00001900290039000BF36E042F64841C2F205
:101BE000000101EB800191ED000AB0EE408A002176
:101BF00018E045F6E812C2F2000202EB8102D2EDD3
:101C0000000A00EB411240F24803C2F2000303EB6A
:101C1000820292ED001AB0EE480A00EE810AB0EEA0
:101C2000408A491C2C29E4DBB5EEC08AF1EE10FA9B
:101C300002DD18EE101A00E0002142F64852C2F20E
:101C4000000242F82010401C2028C6DB00202FE0B4
:101C500044F2C811C2F2000101EB800191ED000ACB
:101C6000F0EE408A002118E042F64852C2F200022B
:101C700002EB8102D2ED000A00EB810243F6C85369
:101C8000C2F2000303EB820292ED001AB0EE680A82
:101C900000EE810AF0EE408A491C2029E4DB45F67B
:101CA000A821C2F2000101EB8001C1ED008A401CB5
:101CB0000428CDDB002405E145F6A820C2F200008F
:101CC00000EB840090ED001A46F27E00C4F29D20E5
:101CD00000EE100A44F21470C4F2E81000EE900A0C
:101CE00000EE810A45F6B820C2F2000000EB840045
:101CF00080ED000A45F69820C2F2000000EB840057
:101D000090ED001A46F27E00C4F29D2000EE100A0B
:101D100044F21470C4F2E81000EE900A00EE810A5A
:101D200045F6C820C2F2000000EB840080ED000AF6
:101D300045F6B820C2F2000000EB840090ED000AE6
:101D400045F6C820C2F2000000EB8400D0ED000A86
:101D500030EE600A20EE000A0CA800EB840080ED53
:101D6000000A0CA800EB840090ED000A10EE101A97
:101D7000084602F022FA41EC1A0BB0EE4A0AF0EEE5
:101D80006A0A02F089FBB0EE409AF0EE609A51ECDC
:101D9000190B02F025FA08A941F8240045F6B821EC
:101DA000C2F2000101EB840191ED000A45F6C82161
:101DB000C2F2000101EB8401D1ED000A30EE600AAD
:101DC000BDEEC00A10EE100A002801DB014600E05B
:101DD000414200EE101AB8EEC00A04A901EB8401DA
:101DE00081ED000A04A800EB840090ED000A45F69E
:101DF000C820C2F2000000EB8400D0ED000A80EEA3
:101E0000201A684600EB840080ED001A0CA800EB55
:101E1000840090ED001A4FF44040C4F25A6000EE86
:101E2000100AC1EE000A40F21400C2F2000090ED68
:101E3000000A30EE800A80ED000A08A800EB84005A
:101E4000D0ED000A4FF44040C4F25A6000EE100A90
:101E500080EE801A40F21800C2F2000090ED000AF5
:101E600031EE000A80ED000A04A800EB840090ED3A
:101E7000001A4FF44040C4F25A6000EE100AC1EE5E
:101E8000000A40F21C00C2F2000090ED000A30EEA1
:101E9000800A80ED000A684600EB8400D0ED000A5D
:101EA0000020C4F20C3000EE100A80EE801A40F2DE
:101EB0002000C2F2000090ED000A31EE000A80ED31
:101EC000000A641C042CFFF6F7AE10B0BDEC068BC4
:101ED00010BD10B504466FF0040000F091FAE11750
:101EE00004EB5171C1F3C70140F22402C2F20002B7
:101EF00011701046007800EB4001C1EBC0104FF6A6
:101F0000FF7101EAC00040F22601C2F20001088020
:101F100010BD014640F22402C2F2000212784A4388
:101F20004FF0E0235A6100229A611A46126942F08A
:101F300001021A6100BF4FF0E022106900F00102B7
:101F40001AB100F48032002AF5D04FF0E022126975
:101F500022F001024FF0E0231A6100229A617047DB
:101F6000014640F22602C2F2000212884A434FF0B4
:101F7000E0235A6100229A611A46126942F0010276
:101F80001A6100BF4FF0E022106900F001021AB19F
:101F900000F48032002AF5D04FF0E022126922F0DE
:101FA00001024FF0E0231A6100229A61704770B578
:101FB00004464FF4077094FBF0F0C6B24FF407707C
:101FC00094FBF0F100FB114085B205E04FF407707F
:101FD000FFF7C6FF701EC6B2002EF7D115B1284616
:101FE000FFF7BEFF70BD00BF704700BF4FF48052C7
:101FF000C4F20102128802F04002002AF6D0C2B2F6
:102000004FF48053C4F201039A80704710B588B032
:1020100004460121084600F0D8FD0121102000F0FF
:1020200038FE072209210020C4F2020000F02DFB37
:1020300007220A210020C4F2020000F026FB4FF420
:10204000C060069002208DF81C008DF81D00002055
:102050008DF81E0001208DF81F0006A90020C4F293
:10206000020000F087FA4FF4E13002900020ADF852
:102070000C00ADF80E00ADF81000ADF814000C2007
:10208000ADF8120002A94FF48050C4F2010000F034
:10209000E7FF01214FF48050C4F2010001F06FF816
:1020A000012240F225514FF48050C4F2010001F0AA
:1020B0001CF925208DF8040003208DF805008DF80B
:1020C000060001208DF8070001A800F037F908B0DC
:1020D00010BD10B540F225514FF48050C4F20100FC
:1020E00001F03EF958B34FF48050C4F2010001F002
:1020F00075F8C4B240F22C00C2F20000008800F46F
:102100000040E0B940F22C00C2F20000008800F468
:102110008040A8B10A2C06D0002040F22C01C2F267
:102120000001088038E040F22C00C2F20000008874
:1021300040F4004040F22C01C2F2000108802BE084
:102140000D2C0CD140F22C00C2F20000008840F4AB
:10215000804040F22C01C2F2000108801CE040F2F5
:102160002C00C2F200000088C0F30D0045F6D82113
:10217000C2F200010C5440F22C00C2F200000088B0
:10218000401C40F22C01C2F2000108800846008881
:10219000C72801DD0020088010BD08B54FF4E060BD
:1021A00000F0C2F837208DF8000000208DF8010003
:1021B00003208DF8020001208DF80300684600F02E
:1021C000BDF808BD0EB50121202000F049FD42F206
:1021D0000F70019042F2CF00ADF8000069464FF455
:1021E000A050C4F2000001F0C7F901214FF4A05043
:1021F000C4F2000001F082FE012211464FF4A0500B
:10220000C4F2000001F066FE01214FF4A050C4F2B8
:10221000000001F053FA0EBD10B5FFF7BEFFFFF747
:10222000D1FF10BD10B501214FF4A050C4F2000041
:1022300001F05BFE88B140F23000C2F2000000689D
:10224000401C40F23001C2F20001086001214FF44D
:10225000A050C4F2000001F051FE10BD10B50020E6
:1022600041F22441C4F20001086001214FF4A05062
:10227000C4F2000001F022FA10BD10B541F2244072
:10228000C4F20000046800214FF4A050C4F2000022
:1022900001F014FA204610BD10B5A820FFF719FE72
:1022A0000121402000F0AAFC012001F020FF0AE0FB
:1022B000601C84B26420FFF72CFE42F2107084424E
:1022C00001DB012010BD012001F04DFF0028EFD0FF
:1022D0000020F7E710B500BF012001F044FF0028FF
:1022E000FAD001F01FFF10BD70B504460D46FFF790
:1022F000F1FF291B491CB0FBF1F201FB1200204445
:1023000070BD00000648804706480047FEE7FEE72C
:10231000FEE7FEE7FEE7FEE7FEE7FEE7FEE7FEE795
:10232000AF0400088901000840F0FD7141F08061B0
:102330004EF60C52CEF200021160704770B50021CB
:1023400000230F22C4784CB34EF60C54CEF2000496
:10235000246804F4E064C4F5E064C4F30721C1F127
:102360000404E3B20A4144789C40E1B2847814400A
:1023700021430C07210E4FF46444CEF2000405788B
:102380006155047804F01F050124AC4005786D11F7
:10239000AD0005F1E025C5F800410CE0047804F03B
:1023A0001F050124AC404EF28015CEF200050678E0
:1023B000761145F8264070BD21F07F0222F0604280
:1023C00002434EF60853CEF200031A60704759B12B
:1023D0004EF61052CEF20002126802434EF610532F
:1023E000CEF200031A600AE04EF61052CEF200025E
:1023F000126882434EF61053CEF200031A60704703
:10240000042808D14FF0E021096941F004014FF0A0
:10241000E022116107E04FF0E021096921F0040199
:102420004FF0E0221161704710B504460020C4F25D
:102430000200844208D10121084600F043FC00213B
:10244000012000F03FFC94E04FF48060C4F20200F1
:10245000844208D10121022000F034FC0021022036
:1024600000F030FC85E04FF40060C4F202008442CA
:1024700008D10121042000F025FC0021042000F0F7
:1024800021FC76E04FF44060C4F20200844208D19F
:102490000121082000F016FC0021082000F012FCA9
:1024A00067E04FF48050C4F20200844208D1012159
:1024B000102000F007FC0021102000F003FC58E081
:1024C0004FF4A050C4F20200844208D10121202020
:1024D00000F0F8FB0021202000F0F4FB49E04FF46D
:1024E000C050C4F20200844208D10121402000F013
:1024F000E9FB0021402000F0E5FB3AE04FF4E0501A
:10250000C4F20200844208D10121802000F0DAFBED
:102510000021802000F0D6FB2BE04FF40050C4F2E5
:102520000200844208D10121801500F0CBFB00217C
:10253000A01500F0C7FB1CE04FF41050C4F20200DD
:10254000844208D10121401500F0BCFB0021601538
:1025500000F0B8FB0DE04FF42050C4F202008442BA
:1025600007D10121001500F0ADFB0021201500F07E
:10257000A9FB10BDF0B50A4600210023002400BFCE
:102580003DE0012505FA01F3156805EA03049C42C4
:1025900034D105684F000326BE40B5430560157968
:1025A0004E00B5400668354305601579012D02D00F
:1025B0001579022D16D185684F000326BE40B5431C
:1025C000856055794E00B54086683543856045681D
:1025D00001268E40B5434560456896798E40B6B277
:1025E00035434560C5684F000326BE40B543C5600E
:1025F000D5794E00B540C6683543C560491C1029E1
:10260000BFD3F0BD4FF6FF71016000210171417130
:102610008171C171704708B54FF480320092009A01
:102620000A430092009AC261C161009AC261C26904
:102630000092C269009208BD0246002013690B4057
:102640000BB1012000E0002070470146086980B20C
:1026500070470246002053690B400BB1012000E097
:10266000002070470146486980B270470183704777
:10267000418370470AB1018300E0418370474161A3
:10268000704742694A4042617047F0B50023002418
:102690004D07ED0E02FA05F3CE1000F1200555F8B6
:1026A00026504E07F70E0F26BE40B543CF1000F15F
:1026B000200646F82750CE1000F1200555F8265088
:1026C00045EA0304CE1000F1200545F82640F0BD90
:1026D0004FF46050C4F20200006840F001004FF473
:1026E0006051C4F202010860002043F60801C4F200
:1026F000020108604FF46050C4F20200006820F448
:10270000102020F0A8504FF46051C4F2020108607C
:1027100043F21000C2F20040091D08604FF440501F
:10272000C2F2000043F68401C4F2020108604FF4D3
:102730004050C2F20040091D08604FF46050C4F2DE
:102740000200006820F480204FF46051C4F20201BE
:102750000860002043F60C01C4F20201086043F651
:102760008C01C4F2020108607047002143F60202A6
:10277000C4F20202117011460870704710B501468C
:102780000022002300204A11012A05D14FF4605491
:10279000C4F2020423680CE0022A05D143F6700457
:1027A000C4F20204236804E043F67404C4F2020491
:1027B000236801F01F02012494401C400CB1012049
:1027C00000E0002010BD38B5002000900024002556
:1027D00000BF3120FFF7D2FF05460098401C009053
:1027E0000098B0F5A04F01D0002DF2D03120FFF7B6
:1027F000C5FF08B1012400E00024204638BD014691
:1028000000204FF46052C4F20202106820F0F80079
:1028100040EAC100106070470021C4F247210860FF
:102820007047002143F67002C4F202021170117069
:10283000012802D004280ED106E0012143F67002DF
:10284000C4F20202117007E0052143F67002C4F2DF
:102850000202117000E000BF00BF70474FF46861D2
:10286000C4F247210860704770B5049C41EA8215A4
:102870000126C6EB530645EA0645054345EA0465CD
:1028800043F60406C4F20206356070BD0021C4F2AE
:10289000472108667047820142EA017243F68403C9
:1028A000C4F202031A6070470021C4F2472188660F
:1028B000704710B5830143EA016343EA027343F6AC
:1028C0008804C4F20204236010BD0021C4F2472131
:1028D000086770470021C4F24721C8647047024668
:1028E000002043F60803C4F20203186820F0EC60ED
:1028F00042EA0103184343F60803C4F202031860D6
:1029000070470246002043F60803C4F20203186829
:1029100020F0784042EA0103184343F60803C4F26A
:102920000203186070470146002043F60802C4F213
:102930000202106820F0030008431060704743F65D
:102940000800C4F20200006800F00C007047014665
:10295000002043F60802C4F20202106820F0F000E2
:102960000843106070470146002043F60802C4F295
:102970000202106820F4E0500843106070470146DE
:10298000002043F60802C4F20202106820F46040FE
:1029900040EAC10010607047F0B500210022002419
:1029A00002250026022343F60807C4F202073F6807
:1029B00007F00C0121B1042908D0082949D10BE006
:1029C0004FF41057C0F2F407076048E04FF49057F7
:1029D000C0F27A07076042E043F60407C4F2020738
:1029E0003F68C7F3805643F60407C4F202073F6806
:1029F00007F03F0386B14FF49057C0F27A07B7FB58
:102A0000F3F743F6040CC4F2020CDCF800C0CCF37C
:102A1000881C07FB0CF40FE04FF41057C0F2F407CA
:102A2000B7FBF3F743F6040CC4F2020CDCF800C069
:102A3000CCF3881C07FB0CF443F60407C4F202072E
:102A40003F68C7F301477F1C7D00B4FBF5F70760C3
:102A500005E04FF41057C0F2F407076000BF00BF55
:102A600043F60807C4F202073F6807F0F0010909BE
:102A700040F23407C2F200077A5C0768D74047602B
:102A800043F60807C4F202073F6807F4E051890AD9
:102A900040F23407C2F200077A5C4768D74087608B
:102AA00043F60807C4F202073F6807F46041490B88
:102AB00040F23407C2F200077A5C4768D740C7602B
:102AC000F0BD002100F44072B2F5407F10D143F612
:102AD0000802C4F20202116821F4F81120F44072D5
:102AE00022F07042114343F60802C4F20202116060
:102AF00043F67002C4F202021268C0F30B031A43D9
:102B000043F67003C4F202031A60704740F63C615A
:102B1000C4F24721086070474FF46461C4F2472152
:102B2000086070474FF4AE71C4F2472108607047E7
:102B30000146002043F68C02C4F20202106820F025
:102B40001F004A1E104343F68C02C4F202021060BA
:102B500070470146002043F68C02C4F2020210685E
:102B600020F4F8504A1E40EA022043F68C02C4F2D8
:102B70000202106070470146002043F68C02C4F246
:102B80000202106820F440100843106070470146AC
:102B9000002043F68C02C4F20202106820F44000C8
:102BA0000843106070470146002043F68C02C4F2CF
:102BB0000202106820F440300843106070474FF460
:102BC0008F51C4F247210860704759B143F6300273
:102BD000C4F202021268024343F63003C4F2020355
:102BE0001A600AE043F63002C4F20202126882431D
:102BF00043F63003C4F202031A60704759B143F63A
:102C00003402C4F202021268024343F63403C4F2EF
:102C100002031A600AE043F63402C4F202021268A8
:102C2000824343F63403C4F202031A60704759B179
:102C300043F63802C4F202021268024343F6380334
:102C4000C4F202031A600AE043F63802C4F2020238
:102C50001268824343F63803C4F202031A607047D5
:102C600059B14FF46152C4F20202126802434FF4A8
:102C70006153C4F202031A600AE04FF46152C4F2D5
:102C80000202126882434FF46153C4F202031A60D5
:102C9000704759B143F64402C4F20202126802437B
:102CA00043F64403C4F202031A600AE043F6440206
:102CB000C4F202021268824343F64403C4F20203E0
:102CC0001A60704759B143F61002C4F2020212684A
:102CD000024343F61003C4F202031A600AE043F60B
:102CE0001002C4F202021268824343F61003C4F2D7
:102CF00002031A60704759B143F61402C4F202028B
:102D00001268024343F61403C4F202031A600AE095
:102D100043F61402C4F202021268824343F614031B
:102D2000C4F202031A60704759B143F61802C4F2A4
:102D300002021268024343F61803C4F202031A6047
:102D40000AE043F61802C4F202021268824343F614
:102D50001803C4F202031A60704759B143F6200207
:102D6000C4F202021268024343F62003C4F20203D3
:102D70001A600AE043F62002C4F20202126882439B
:102D800043F62003C4F202031A60704759B143F6B8
:102D90002402C4F202021268024343F62403C4F27E
:102DA00002031A600AE043F62402C4F20202126827
:102DB000824343F62403C4F202031A60704759B1F8
:102DC00043F65002C4F202021268024343F6500373
:102DD000C4F202031A600AE043F65002C4F202028F
:102DE0001268824343F65003C4F202031A6070472C
:102DF00059B143F65402C4F202021268024343F688
:102E00005403C4F202031A600AE043F65402C4F207
:102E100002021268824343F65403C4F202031A60AA
:102E2000704759B143F65802C4F2020212680243D5
:102E300043F65803C4F202031A600AE043F658024C
:102E4000C4F202021268824343F65803C4F202033A
:102E50001A60704759B143F66002C4F20202126868
:102E6000024343F66003C4F202031A600AE043F629
:102E70006002C4F202021268824343F66003C4F2A5
:102E800002031A60704759B143F66402C4F20202A9
:102E90001268024343F66403C4F202031A600AE0B4
:102EA00043F66402C4F202021268824343F66403EA
:102EB000C4F202031A60704701280CD143F6700176
:102EC000C4F20201096841F0080143F67002C4F23D
:102ED000020211600BE043F67001C4F202010968BE
:102EE00021F0080143F67002C4F20202116070473B
:102EF00059B143F60D02C4F202021278024343F6BE
:102F00000D03C4F202031A700AE043F60D02C4F284
:102F100002021278824343F60D03C4F202031A70D0
:102F2000704743F67400C4F20200006840F08070FD
:102F300043F67401C4F202010860704701460020A4
:102F400043F60C02C4F2020212680A400AB10120E0
:102F500000E00020704743F60E01C4F20201087041
:102F6000704710B504464FF48050C4F2010084420B
:102F700008D101211020FFF709FF00211020FFF7E1
:102F800005FF6CE04FF48840C4F20000844209D190
:102F900001214804FFF7E1FE00214FF40030FFF764
:102FA000DCFE5CE04FF49040C4F20000844209D1A2
:102FB00001218804FFF7D1FE00214FF48020FFF7A4
:102FC000CCFE4CE04FF49840C4F20000844209D19A
:102FD0000121C804FFF7C1FE00214FF40020FFF7D4
:102FE000BCFE3CE04FF4A040C4F20000844209D192
:102FF00001210805FFF7B1FE00214FF48010FFF713
:10300000ACFE2CE04FF4A050C4F20100844208D181
:1030100001212020FFF7BAFE00212020FFF7B6FE95
:103020001DE04FF4F040C4F20000844209D10121B8
:103030008807FFF792FE00214FF08040FFF78DFEDA
:103040000DE04FF4F840C4F20000844207D10121A2
:103050004005FFF782FE00216005FFF77EFE10BDF0
:103060002DE9FF4705460E460024A14600BFA046B5
:10307000B08900B100BF2C8A24F44054F088044386
:103080002C82AC8924F4037424F4A054B0883189D0
:103090000843718908430443AC81AC8A24F440742A
:1030A000B0890443AC826846FFF776FC4FF4805049
:1030B000C4F20100854205D04FF4A050C4F20100D3
:1030C000854202D1DDF80C9001E0DDF80890A88976
:1030D00000F4004040B109EBC90000EB0910316871
:1030E0004900B0FBF1F707E009EBC90000EB09105C
:1030F00031688900B0FBF1F76420B7FBF0F0040100
:103100002009642101FB1078A88900F4004040B137
:10311000322000EBC800B0FBF1F000F007000443E0
:1031200008E0322000EB08106421B0FBF1F000F061
:103130000F0004432C81BDE8FF874FF41651016056
:1031400000218180C18001810C2141810021818188
:10315000704710B502460020108A20F470600B887A
:103160004C8823438C882343CC8823431843108204
:1031700010BD0021018041808180C180704721B154
:10318000828942F40052828104E082894DF6FF7305
:103190001A4082817047028B02F47F420283028BC5
:1031A0000A430283704721B1828942F4004282813E
:1031B00003E08289C2F30E028281704721B1828AC4
:1031C00042F40062828204E0828A4FF2FF731A4066
:1031D00082827047C1F30802828070470146888866
:1031E000C0F308007047028A4FF6F0731A4002825B
:1031F000028A0A430282704721B1828942F00202A8
:10320000828104E082894FF6FD731A408281704703
:1032100082894FF2FF731A40828182890A43828138
:103220007047028A4FF6DF731A400282028A0A430D
:103230000282704721B1028A42F48042028204E095
:10324000028A4BF6FF731A4002827047818941F06F
:1032500001018181704721B1828A42F00802828295
:1032600004E0828A4FF6F7731A4082827047028B1D
:10327000D2B20283028B42EA01220283704721B15B
:10328000828A42F02002828204E0828A4FF6DF7353
:103290001A408282704721B1828A42F010028282F3
:1032A00004E0828A4FF6EF731A4082827047828A66
:1032B0004FF6FB731A408282828A0A4382827047E9
:1032C00021B1828A42F00202828204E0828A4FF6B1
:1032D000FD731A40828270471AB1838A0B4383823E
:1032E00002E0838A8B4383827047F0B50346002453
:1032F00000260025002040F66A17B94200D100BF21
:103300001846C1F3421401F01F06012707FA06F51B
:10331000012C01D10C3004E0022C01D1103000E06E
:1033200014301AB107682F43076002E00768AF4303
:103330000760F0BD02460020B1F5007F00D100BF5C
:1033400013880B400BB1012000E00020704701F40E
:103350000072B2F5007F00D100BFCA4302807047FF
:1033600070B50246002400230025002040F66A16AE
:10337000B14200D100BFC1F3421501F01F03012685
:1033800006FA03F3012D02D19689334006E0022D9F
:1033900002D1168A334001E0968A33400C1201268E
:1033A00006FA04F41688344013B10CB1012000E091
:1033B000002070BD10B50022002340F66A14A1421F
:1033C00000D100BF0A1201249440A3B2DC43048060
:1033D00010BD10B504460020C4F20100844208D19B
:1033E00001210846FFF7D2FC00210120FFF7CEFCA7
:1033F000C1E0B4F1804F08D101210846FFF7ADFCD0
:1034000000210120FFF7A9FCB5E04FF48060C4F271
:103410000000844208D101210220FFF79EFC002118
:103420000220FFF79AFCA6E04FF40060C4F200000F
:10343000844208D101210420FFF78FFC00210420E1
:10344000FFF78BFC97E04FF44060C4F20000844229
:1034500008D101210820FFF780FC00210820FFF798
:103460007CFC88E04FF48050C4F20000844208D114
:1034700001211020FFF771FC00211020FFF76DFCE7
:1034800079E04FF4A050C4F20000844208D1012139
:103490002020FFF762FC00212020FFF75EFC6AE09D
:1034A0004FF48060C4F20100844208D1012102205F
:1034B000FFF76CFC00210220FFF768FC5BE04FF493
:1034C0008040C4F20100844209D101210804FFF7C1
:1034D0005DFC00214FF48030FFF758FC4BE04FF4C7
:1034E0008840C4F20100844209D101214804FFF759
:1034F0004DFC00214FF40030FFF748FC3BE04FF457
:103500009040C4F20100844209D101218804FFF7F0
:103510003DFC00214FF48020FFF738FC2BE04FF4F6
:10352000C050C4F20000844208D101214020FFF7BE
:1035300014FC00214020FFF710FC1CE04FF4E05089
:10354000C4F20000844208D101218020FFF705FC6D
:1035500000218020FFF701FC0DE04FF40050C4F281
:103560000000844207D101218015FFF7F6FB0021FE
:10357000A015FFF7F2FB10BD002202880023C4F261
:10358000010398421AD04FF48063C4F201039842B9
:1035900014D0B0F1804F11D04FF48063C4F2000317
:1035A00098420BD04FF40063C4F20003984205D058
:1035B0004FF44063C4F20003984204D14FF68F7376
:1035C0001A404B881A434FF48053C4F200039842C8
:1035D0000AD04FF4A053C4F20003984204D04FF62F
:1035E000FF431A400B891A4302804B68C3620B8861
:1035F00003850023C4F20103984205D04FF4806391
:10360000C4F20103984201D18B7A0386012383829D
:1036100070474FF0FF3141600021018001814180FE
:10362000817270470185828270470A4600210188B5
:103630004FF68F7319401143018070474162704704
:10364000C16270470146486A70470146088D70475D
:1036500021B1028842F00202028004E002884FF6A3
:10366000FD731A400280704721B1028842F00402C3
:10367000028004E002884FF6FB731A400280704714
:1036800021B1028842F08002028004E002884FF6F5
:103690007F731A400280704702884FF6F7731A4012
:1036A000028002880A430280704702884FF6FF4377
:1036B0001A40028002880A430280704721B10288C2
:1036C00042F00102028004E002884FF6FE731A40C5
:1036D0000280704770B5002400220023058C4FF64D
:1036E000FE7635400584028C8388048B4FF68F75F7
:1036F0002C40B51E2C400D882C43751E2A408D8908
:103700002A434D882A430025C4F20105A84205D06A
:103710004FF48065C4F20105A84213D14FF6F77546
:103720002A40CD892A434FF6FB752A408D882A43CB
:103730004FF6FF652B404FF6FF552B400D8A2B436C
:103740004D8A2B43838004838D684563028470BD5A
:1037500070B5002400220023058C4FF6EF7635402B
:103760000584028C8388048B48F6FF752C404FF645
:10377000FF452C400D884FF6FF7606EA05252C43C1
:103780004FF6DF752A408D8906EA05152A434D88D4
:1037900006EA05152A430025C4F20105A84205D012
:1037A0004FF48065C4F20105A8421DD14FF67F7524
:1037B0002A40CD894FF6FF7606EA05152A434FF6D3
:1037C000BF752A408D8806EA05152A434FF6FF3556
:1037D0002B404FF2FF752B400D8A06EA85052B43DF
:1037E0004D8A06EA85052B43838004838D688563B3
:1037F000028470BD70B5002400220023058C4FF6B2
:10380000FF6635400584028C8388848B4FF68F7564
:103810002C404FF6FC752C400D882C434FF6FF557D
:103820002A408D894FF6FF7606EA05252A434D8802
:1038300006EA05252A430025C4F20105A84205D061
:103840004FF48065C4F20105A8421DD14FF2FF7507
:103850002A40CD894FF6FF7606EA05252A434FF622
:10386000FF352A408D8806EA05252A434EF6FF7566
:103870002B404DF6FF752B400D8A06EA05152B43AC
:103880004D8A06EA05152B43838084838D68C563C2
:10389000028470BD70B5002200230024058C4EF612
:1038A000FF7635400584038C8488828B48F6FF754B
:1038B0002A404FF6FF452A400D884FF6FF7606EA6C
:1038C00005252A434DF6FF752B408D8906EA0535FF
:1038D0002B434D8806EA05352B430025C4F201052C
:1038E000A84205D04FF48065C4F20105A84208D172
:1038F0004BF6FF752C400D8A4FF6FF7606EA8515CC
:103900002C43848082838D680564038470BD00210C
:1039100001804180818081608181C18101824182F9
:10392000704770B503460020002418461830012562
:103930008D40ACB21D8CA5431D8409B108290AD164
:1039400000EB610005684FF68F763540056005682D
:10395000154305600FE00D1FC5F34E0528440568AB
:1039600048F6FF763540056005684FF6FF7606EAB3
:1039700002263543056070BD41637047816370471F
:10398000C1637047016470470A460021018B4FF6FE
:103990008F7319401143018370470A460021018B40
:1039A00048F6FF7319404FF6FF7303EA02231943E9
:1039B000018370470A460021818B4FF68F731940AF
:1039C0001143818370470A460021818B48F6FF73BB
:1039D00019404FF6FF7303EA0223194381837047AE
:1039E0000A460021018B4FF6F773194011430183FA
:1039F00070470A460021018B4FF2FF7319404FF6C2
:103A0000FF7303EA02231943018370470A4600212A
:103A1000818B4FF6F77319401143818370470A4633
:103A20000021818B4FF2FF7319404FF6FF7303EAB9
:103A300002231943818370470A460021018B4FF608
:103A4000FB7319401143018370470A460021018B23
:103A50004FF6FF3319404FF6FF7303EA0223194371
:103A6000018370470A460021818B4FF6FB73194092
:103A70001143818370470A460021818B4FF6FF3343
:103A800019404FF6FF7303EA0223194381837047FD
:103A90000A460021018B4FF67F73194011430183C1
:103AA00070470A460021018BC1F30E014FF6FF73E8
:103AB00003EA02231943018370470A460021818BE0
:103AC0004FF67F7319401143818370470A460021E6
:103AD000818BC1F30E014FF6FF7303EA02231943F2
:103AE000818370470A460021018C4FF6FD7319400F
:103AF0001143018470470A460021018C4FF6F77389
:103B000019401143018470470A460021018C4FF689
:103B1000DF7319404FF6FF7303EA02131943018460
:103B200070470A460021018C4FF67F7319404FF60B
:103B3000FF7303EA02131943018470470A46002108
:103B4000018C4FF6FF5319404FF6FF7303EA02232F
:103B50001943018470470A460021018C4FF2FF731C
:103B600019404FF6FF7303EA02231943018470479B
:103B70000A460021018C4DF6FF7319404FF6FF7382
:103B800003EA023319430184704730B5002301244E
:103B90008C40A3B2048C9C430484048C02FA01F58B
:103BA000ADB22C43048430BD30B5002304248C40D6
:103BB000A3B2048C9C430484048C02FA01F5ADB2D8
:103BC0002C43048430BD828B4FF2FF331A40828332
:103BD000828B4FF6FF7303EA01231A4382837047F7
:103BE000F0B50C461546002100220026078C4EF643
:103BF000FF7C07EA0C070784818B028C4FF6FF7766
:103C000007EA043640F6FF4739404FF6FF7707EAE8
:103C1000052739434FF6FF7707EA0337394345F65F
:103C2000FF773A4046F480573A4381830284F0BDDF
:103C3000828B4FF6F3731A408283828B0A4382830E
:103C40007047F0B50C461546002100220026078C6F
:103C50004FF6FF6C07EA0C070784818B028C4FF646
:103C6000FF7707EA04264FF60C7739404FF6FF77C7
:103C700007EA03172F4339434FF2FF573A4046F400
:103C800080773A4381830284F0BD028B4FF2FF3389
:103C90001A400283028B4FF6FF7303EA01231A4393
:103CA00002837047F0B50C4615460021002200261D
:103CB000078C4FF6EF7C07EA0C070784018B028C18
:103CC0004FF6FF7707EA041640F6FF4739404FF6F4
:103CD000FF7707EA033739434FF6FF7707EA0527EF
:103CE00039434FF65F773A4046F010073A43018375
:103CF0000284F0BD028B4FF6F3731A400283028BED
:103D00000A4302837047F0B50C4615460021002295
:103D1000068C4FF6FE773E400684018B028C4FF6F0
:103D20000C7631407E1C06EA03162E4331434FF6D3
:103D3000F576324044F00106324301830284F0BD3F
:103D400070B505460C46208850B92389A288618841
:103D50002846FFF7D8FFE1882846FFF7CBFF25E08C
:103D6000208804280AD12389A28861882846FFF781
:103D700099FFE1882846FFF788FF17E02088082888
:103D80000AD12389A28861882846FFF75AFFE18873
:103D90002846FFF74DFF09E02389A288618828465D
:103DA000FFF71EFFE1882846FFF70DFF70BD0021D9
:103DB00001804180012181800021C1800181704703
:103DC0002DE9F04105460C4600260127608808B918
:103DD000022600E00026A088012801D1022700E089
:103DE00001272088A0B92389A28861882846FFF787
:103DF0008AFFE1882846FFF77DFF23893A4631464E
:103E00002846FFF74FFFE1882846FFF73EFF13E003
:103E10002389A28861882846FFF744FFE188284665
:103E2000FFF733FF23893A4631462846FFF76BFFF9
:103E3000E1882846FFF75EFFBDE8F0810146486B48
:103E400070470146886B70470146C86B7047014652
:103E5000086C70470A884B881A438B881A43CB88B2
:103E60001A430B891A434B891A438B891A43A0F8CA
:103E7000442070470021018041808180C180018100
:103E800041818181704731B1B0F8442042F4004251
:103E9000A0F8442005E0B0F84420C2F30E02A0F8D8
:103EA0004420704721B1828842F00402828004E0FD
:103EB00082884FF6FB731A408280704721B1828856
:103EC00042F00102828004E082884FF6FE731A40BD
:103ED000828070471AB183890B43838102E0838912
:103EE0008B43838170478182704702460020138A8A
:103EF0000B400BB1012000E000207047CA43028252
:103F0000704730B50246002000230024158A05EAD8
:103F10000103958905EA010413B10CB1012000E009
:103F2000002030BDCA430282704741EA0203A0F874
:103F3000483070471AB183890B43838102E083893B
:103F40008B438381704721B1828842F008028280CE
:103F500004E082884FF6F7731A4082807047018927
:103F60004FF6F8721140018170470A46002101891D
:103F70004FF68F73194011430181704730B50446E5
:103F80000D4629462046FFF7F0FF208940F0070044
:103F9000208130BD2DE9F04104460D4616461F46EE
:103FA000602D06D13B46012231462046FFF77AFEBE
:103FB00005E03B46012231462046FFF7A4FE294694
:103FC0002046FFF7D2FF208940F007002081BDE89E
:103FD000F08130B50C4600210189C9B24FF6FF755A
:103FE00005EA0325154325432943018130BD2DE909
:103FF000F04105460E4617469846002443463A4689
:1040000031462846FFF7E5FF2C894FF6F87004404B
:1040100044F007044FF68F70044044F070042C8184
:10402000BDE8F081F0B504460D4616461F463B46F6
:10403000324629462046FFF7CCFF208940F48040D5
:104040002081F0BD82884FF68F731A40828082886B
:104050000A438280704702894FF6F8731A40028142
:1040600002890A430281704702894FF67F731A4022
:10407000028102890A4302817047F0B50C46154659
:104080001E460021002200230189028B038C4FF67B
:10409000F877394021434FF6FC473A4040F2011788
:1040A0003A434FF6DD773B404FF6FF7707EA0617B6
:1040B0002F433B43018102830384F0BD21B18288F9
:1040C00042F08002828004E082884FF67F731A40BB
:1040D00082807047A0F85010704710B50121402031
:1040E000FEF709FE00214020FEF705FE10BD60B17D
:1040F0004FF40061C5F20601096841F004014FF474
:104100000062C5F2060211600BE04FF40061C5F2D7
:104110000601096821F004014FF40062C5F20602AD
:104120001160704740F60800C5F20600006870474D
:1041300060B14FF40061C5F20601096841F0080161
:104140004FF40062C5F2060211600BE04FF400610B
:10415000C5F20601096821F008014FF40062C5F2BA
:104160000602116070470146002040F60402C5F2C5
:10417000060212680A400AB1012000E000207047E0
:104180006FEA001140F60402C5F2060211607047A2
:104190000146002040F60402C5F2060212680A40F9
:1041A0000AB1012000E000207047C143C9B240F6C7
:1041B0000402C5F206021160704700F0004230F0C0
:1041C00000400AD0C10D01F56071C0F3160042EA4B
:1041D0000151C20840071143704700200146704753
:1041E00001F0004330B421F0004150EA010206D052
:1041F0000A0DA2F56072C1F31301002A02DC30BC83
:1042000000207047440F44EAC104C100E01830BCEC
:1042100000EBC25000F016B830B50B460146002046
:104220002022012409E021FA02F59D4205D303FA78
:1042300002F5491B04FA02F52844151EA2F10102F9
:10424000F1DC30BD0029A8BF7047401C490008BF01
:1042500020F00100704710B4B0FA80FC00FA0CF0B6
:1042600050EA010404BF10BC704749B1CCF12004EE
:1042700021FA04F411FA0CF118BF0121214308437B
:10428000A3EB0C01CB1D4FEA00614FEA102042BFA7
:10429000002010BC704700EBC35010440029A4BF9D
:1042A00010BC7047401C490008BF20F0010010BC42
:1042B00070472DE9F04D00231A461B1A8A4103DB93
:1042C00000200146BDE8F08DC1F30A52C1F313018D
:1042D00041F480154FF0000BD10702D100186D4159
:1042E000521E0027044640F2FF11384601EB620AD5
:1042F0003E468046024600204FF4801100F04BF805
:10430000C2197141BB1846EB0100B4EB030C75EB0D
:10431000000C04D3E41A65EB000517460E46241979
:1043200008F101006D4180463428E3DDF91946EBC0
:104330000600091BA84103D24FF0FF32134601E0EB
:10434000002213461BEB070046EB0A51BDE8F04D77
:1043500000F031B8064C074D06E0E06840F001037C
:1043600094E8070098471034AC42F6D3FBF710FFEF
:1043700030E8060850E80608202A04DB203A00FA54
:1043800002F1002070479140C2F1200320FA03F3AC
:10439000194390407047202A04DB203A21FA02F0AA
:1043A0000021704721FA02F3D040C2F1200291406F
:1043B00008431946704710B5141E73F1000408DA5B
:1043C000401C41F1000192185B411A4301D120F0D9
:1043D000010010BD2DE9F04D92469B4611B1B1FA96
:1043E00081F202E0B0FA80F220329046FFF7C4FF7B
:1043F00004460F4640EA0A0041EA0B0153465A467A
:10440000084313D0114653EA010019D0C8F1400205
:104410005046FFF7C0FF05460E46504659464246F5
:10442000FFF7AAFF084305D0012004E020463946E3
:10443000BDE8F08D0020054346EAE0762C43374383
:104440000A986305E40AA0EB08000022FD0A44EA8A
:1044500047540A3002D500200146E9E7010510194A
:104460006941DDE9084500196941BDE8F04DA2E761
:104470000FB4084B10B504A902AA039800F05EF827
:10448000044602A9002000F003F9204610BC5DF8A4
:1044900014FB00009146000800B52DED048BB0EE32
:1044A000409AF0EE609A83B051EC190BFFF701FFD0
:1044B00041EC180B18EE100A18EE901A8DED008BD7
:1044C000002818BF0120084320F00040C0F17F60A1
:1044D00000F1E040C00F14D019EE101A19EE900A46
:1044E0008DED009B002918BF0121084320F00040FA
:1044F000C0F17F6000F1E040C00F04BF012000F078
:1045000017F8B0EE480A03B0F0EE680ABDEC048B71
:1045100000BD02E008C8121F08C1002AFAD1704786
:104520007047002001E001C1121F002AFBD1704733
:104530000149086070470000440000202DE9FF4F4A
:1045400089B09B460446002506E025280BD05A4634
:104550000B999047641C6D1C20780028F5D10DB094
:104560002846BDE8F08F0027B8460122474900E001
:10457000074314F8013F203B02FA03F00842F7D149
:1045800020782E2819D114F8010F47F004072A28A3
:104590000ED06FF02F022078A0F1300109290CD83D
:1045A00008EB880102EB410100EB0108641CF2E713
:1045B0000A98641C50F8048B0A9020780028CED00A
:1045C000642808D0692806D075281ED05A460B9951
:1045D00090476D1C58E00A994FF00A0901C90A91E9
:1045E000002802DA40422D2102E0390504D52B21B2
:1045F0008DF82010012103E0F90704D02021F7E70E
:104600008A4608AE0DE00021FAE70A994FF00A0940
:1046100001C90A91F7E74946FFF7FEFD303106F878
:10462000011D0028F7D1ADEB060000F12009780745
:1046300001D44FF00108C84502DDA8EB090000E0F5
:1046400000208046002706E008A85A46C05D0B9966
:1046500090476D1C7F1C5745F6DB04E030205A461E
:104660000B9990476D1CB8F10001A8F10108F5DC29
:1046700005E016F8010B5A460B9990476D1CB9F1ED
:104680000001A9F10109F4DC641C65E709280100B7
:104690000A68531C0B601070704700000000000097
:1046A00000000000000000000404040404000004F2
:1046B000000014140A0000000000000000000000C8
:1046C0000A0A1F0A0A1F0A0A000000040E1505063E
:1046D0000C14150E0400000012150D152E2C2A12B4
:1046E00000000000040A0A3615152916000002020F
:1046F000010000000000000000001008080404048D
:104700000404080810000204040808080808040447
:10471000020000000004150E0E1504000000000049
:104720000008083E0808000000000000000000002B
:1047300000000202010000000000003F0000000035
:104740000000000000000000000000020000002047
:104750001010080804040202010000000E111111DB
:104760001111110E00000000040604040404040EDC
:10477000000000000E1111080402011F00000000DB
:104780000E11100C1010110E00000000080C0C0A85
:10479000091F081C000000001F01010F1110110E5D
:1047A000000000000C12010D1311110E000000009A
:1047B0001E10080804040404000000000E11110E6D
:1047C0001111110E000000000E111119161009062A
:1047D00000000000000004000000000400000000D1
:1047E000000000040000000404000000100804029F
:1047F000020408100000000000003F003F0000001D
:10480000000000000204081010080402000000006C
:104810000E11110804040004000000001C22292DC0
:104820002D1D221C0000000004040C0A0A1E123375
:10483000000000000F12120E1212120F00000000F2
:104840001E1101010101110E000000000F121212D1
:104850001212120F000000001F120A0E0A02121F8D
:10486000000000001F120A0E0A02020700000000EA
:104870001C1201013911120C000000003312121E2B
:1048800012121233000000001F0404040404041F69
:10489000000000003E080808080808080907000092
:1048A00037120A060A12123700000000070202023D
:1048B0000202223F000000003B1B1B1B1515153593
:1048C000000000003B1216161A1A12170000000012
:1048D0000E1111111111110E000000000F12120E15
:1048E00002020207000000000E1111111117190E2B
:1048F000180000000F12120E0A12123700000000FA
:104900001E1101060810110F000000001F150404FD
:104910000404040E00000000331212121212120CD2
:10492000000000003312120A0A0C04040000000008
:10493000151515150E0A0A0A000000001B0A0A04C4
:10494000040A0A1B000000001B0A0A0A0404040EE1
:10495000000000001F0908040402121F00001C04CC
:1049600004040404040404041C00000202040404FB
:104970000808081010000E080808080808080808A9
:104980000E00040A0000000000000000000000000B
:104990000000000000000000003F020400000000D2
:1049A00000000000000000000000000C121C123C7F
:1049B000000000030202020E1212120E000000009C
:1049C0000000001C1202120C000000181010101C35
:1049D0001212123C000000000000000C121E021C0B
:1049E000000000182404041E0404041E000000003B
:1049F0000000003C120C021C221C00030202020EEA
:104A00001212123700000004040000060404040E11
:104A1000000000080800000C080808080807000348
:104A20000202021A0A060A13000000070404040422
:104A30000404041F000000000000000F15151515E8
:104A4000000000000000000F1212123700000000EA
:104A50000000000C1212120C000000000000000FF9
:104A60001212120E020700000000001C1212121C8B
:104A7000103800000000001B0602020700000000C2
:104A80000000001E020C101E000000000004041EA6
:104A90000404041C000000000000001B1212123C61
:104AA000000000000000001B0A0A040400000000CF
:104AB00000000015150E0A0A000000000000001B8F
:104AC0000A040A1B000000000000003312120C0848
:104AD000040300000000001E0804041E0000180863
:104AE0000808080C0808080818000808080808083A
:104AF0000808080808080604040404080404040458
:104B00000600160900000000000000000000000080
:104B10000000000000000000000000000000000095
:104B200000080808080808080000181800000048D5
:104B30006C241200000000000000000000000000D3
:104B4000002424247F1212127F121212000000008F
:104B5000081C2A2A0A0C1828282A2A1C08080000DF
:104B60000022251515152A5854545422000000001F
:104B7000000C1212120A76252911916E000000060F
:104B800006040300000000000000000000000040D8
:104B90002010100808080808081010204000000223
:104BA000040808101010101010080804020000007B
:104BB000000008086B1C1C6B0808000000000000C7
:104BC0000000080808087F08080808000000000026
:104BD00000000000000000000000060604030000C2
:104BE000000000000000FE000000000000000000C7
:104BF00000000000000000000000060600000000A9
:104C00008040402020101008080404020200000028
:104C1000001824424242424242422418000000004E
:104C200000080E08080808080808083E00000000F0
:104C3000003C4242422020100804427E0000000056
:104C4000003C4242201820404042221C000000004C
:104C500000203028242422227E202078000000001A
:104C6000007E0202021A26404042221C0000000080
:104C700000382402021A2642424224180000000092
:104C8000007E222210100808080808080000000012
:104C9000003C4242422418244242423C00000000B0
:104CA00000182442424264584040241C0000000086
:104CB0000000000018180000000018180000000094
:104CC00000000000000800000000000808040000C8
:104CD00000402010080402040810204000000000DA
:104CE000000000007F0000007F00000000000000C6
:104CF00000020408102040201008040200000000F8
:104D0000003C4242464020101000181800000000ED
:104D1000001C225A555555552D42221C00000000FA
:104D2000000808181414243C224242E70000000046
:104D3000001F2222221E22424242221F00000000A7
:104D4000007C4242010101010142221C00000000DE
:104D5000001F2242424242424242221F0000000003
:104D6000003F4212121E12120242423F0000000097
:104D7000003F4212121E121202020207000000003F
:104D8000003C2222010101712122221C00000000AE
:104D900000E7424242427E42424242E700000000B7
:104DA000003E0808080808080808083E000000003F
:104DB000007C10101010101010101010110F0000B7
:104DC000007722120A0E0A12122222770000000037
:104DD00000070202020202020202427F00000000FB
:104DE0000077363636362A2A2A2A2A6B0000000037
:104DF00000E346464A4A52525262624700000000AF
:104E0000001C2241414141414141221C000000005F
:104E1000003F424242423E020202020700000000FE
:104E2000001C2241414141414D53321C60000000B1
:104E3000003F4242423E1212222242C700000000BE
:104E4000007C4242020418204042423E0000000022
:104E5000007F4908080808080808081C000000002E
:104E600000E74242424242424242423C00000000CD
:104E700000E742422224241414180808000000000D
:104E8000006B49494949555536222222000000004D
:104E900000E7422424181818242442E700000000E8
:104EA00000772222141408080808081C00000000DB
:104EB000007E2120101008040442423F00000078C8
:104EC000080808080808080808080808780000000A
:104ED0000202040408080810102020204040001E90
:104EE0001010101010101010101010101E000038AC
:104EF000440000000000000000000000000000006E
:104F000000000000000000000000000000FF00069C
:104F10000800000000000000000000000000000089
:104F200000000000003C4278444242FC00000000C7
:104F300000030202021A26424242261A0000000022
:104F40000000000000384402020244380000000063
:104F50000060404040784442424264D80000000073
:104F600000000000003C427E0202423C00000000C3
:104F700000F08808087E08080808083E00000000C5
:104F800000000000007C22221C023C42423C000047
:104F900000030202023A4642424242E70000000099
:104FA000000C0C00000E08080808083E0000000075
:104FB000003030000038202020202020221E000059
:104FC000000302020272120A161222770000000089
:104FD000000E0808080808080808083E000000003D
:104FE00000000000007F9292929292B700000000B1
:104FF00000000000003B4642424242E70000000041
:1050000000000000003C42424242423C00000000DE
:1050100000000000001B26424242221E0207000040
:1050200000000000007844424242447840E0000022
:105030000000000000774C040404041F000000007E
:1050400000000000007C42023C40423E00000000A4
:1050500000000008083E08080808083000000000AA
:105060000000000000634242424262DC0000000097
:105070000000000000E7422424140808000000009B
:105080000000000000EB49495555222200000000B5
:1050900000000000007624181818246E000000009C
:1050A0000000000000E7422424141808080700004C
:1050B00000000000007E22100808447E000000C0AE
:1050C000202020202010202020202020C000101090
:1050D00010101010101010101010101010100006EA
:1050E00008080808081008080808080806000C3214
:1050F000C2000000000000000000000000000000EE
:10510000000000000000000000000000000000009F
:10511000000000000000000000000000000000008F
:10512000000000000000000000000000000000007F
:10513000000000000000600060006000600060008F
:1051400060006000400020002000200000000000FF
:10515000000060006000600000000000000000002F
:1051600000006006600630039801880044000000DB
:10517000000000000000000000000000000000002F
:10518000000000000000000000000000000000001F
:105190000000000000001002100210021002FE07C2
:1051A000FE0708020801080108010801FE07FE07C2
:1051B00004010401040104010000000000000000DB
:1051C0000000000040004000F00158034C03CC03F5
:1051D0004C0058007000E000C001C00140034C03C7
:1051E0005C034C034801F000400040000000000058
:1051F0000000000000000E010A01910091009100E2
:10520000510051003A00AE03A0025004500448047B
:1052100048044804840284030000000000000000E9
:1052200000000000000038006C006C006C006C0096
:105230006C002C0098071C011A0133013301630133
:10524000E300C308C6093C0700000000000000009E
:1052500000000C001C0010001000080004000000FA
:10526000000000000000000000000000000000003E
:10527000000000000000000000000000000000002E
:105280000000000400020001800080004000400097
:1052900020002000200020002000200020004000EE
:1052A00040008000800000010002000400000000B7
:1052B0000000020004000800100010002000200080
:1052C00040004000400040004000400040002000FE
:1052D0002000100010000800040002000000000080
:1052E000000000000000000000004000C00040007E
:1052F000460C4E0FD001F0015E0F460C40004000FE
:10530000400000000000000000000000000000005D
:10531000000000000000000000000000400040000D
:10532000400040004000FE0F4000400040004000B0
:10533000400000000000000000000000000000002D
:10534000000000000000000000000000000000005D
:10535000000000000000000000000000000000004D
:1053600000000C001C0010001000080004000000E9
:10537000000000000000000000000000000000002D
:10538000000000000000FE07000000000000000018
:10539000000000000000000000000000000000000D
:1053A00000000000000000000000000000000000FD
:1053B00000000000000000000000000000000000ED
:1053C00000001C001C001C00000000000000000089
:1053D000000000040006000200030001000180003C
:1053E00080004000400060002000200010001000FD
:1053F000080008000C000400060002000000000085
:105400000000000000000000F00098010C030C03F5
:10541000060606060606060606060606060606062C
:105420000C030C039801F0000000000000000000D5
:10543000000000000000000040007C0060006000F0
:10544000600060006000600060006000600060005C
:10545000600060006000FC0300000000000000002D
:105460000000000000000000F800840102030603B1
:105470000603000300018001C0006000200010004E
:10548000080204020602FE03000000000000000003
:1054900000000000000000007800C60086018601C0
:1054A00080018001C0007000800100010003000342
:1054B000060306038601F80000000000000000005B
:1054C000000000000000000080018001C001A00178
:1054D000A00190018801880184018201FE0F8001F2
:1054E000800180018001E007000000000000000052
:1054F0000000000000000000FC03040004000400A1
:1055000004000400F4008C010403000300030603FC
:10551000060382018401F800000000000000000082
:105520000000000000000000E00118030C030C0064
:1055300004000600E60116030E0606060606060629
:1055400004060C021803F000000000000000000038
:105550000000000000000000F8070C06040204012F
:105560000001000180008000400040004000600019
:1055700060006000600060000000000000000000AB
:105580000000000000000000F8010C0306060606FB
:1055900006060C021C03F000C8010C0306060606F2
:1055A000060606060C03F0010000000000000000E3
:1055B0000000000000000000F0000C010C030602D7
:1055C00006060606060606078C0678060006000391
:1055D00000030C018C0178000000000000000000B6
:1055E00000000000000000000000000000000000BB
:1055F0000000E000E000E00000000000000000000B
:105600000000E000E000E0000000000000000000FA
:10561000000000000000000000000000000000008A
:1056200000006000600000000000000000000000BA
:10563000000000006000600040002000200000002A
:105640000000000000000004000200018000400093
:105650002000100008000400080010002000400096
:1056600080000001000200040000000000000000B3
:10567000000000000000000000000000000000002A
:105680000000FE07000000000000FE070000000010
:10569000000000000000000000000000000000000A
:1056A000000000000000040008001000200040007E
:1056B00080000001000200040002000180004000A0
:1056C000200010000800040000000000000000009E
:1056D0000000000000000000E0031806040C040CA9
:1056E0000C0C0C0C00078001400040004000000042
:1056F0000000E000E000E00000000000000000000A
:10570000000000000000E00018030C02CC05640556
:105710006605A605B604B604B604B604B602E401EE
:105720000C040C021803F000000000000000000050
:105730000000000000000000600060005000D00089
:1057400090009000880088010801F8010403040318
:105750000402020202060F0F000000000000000019
:105760000000000000000000FE008C030C030C038E
:105770000C030C038C01FC000C030C020C060C0641
:105780000C060C060C03FE010000000000000000E7
:105790000000000000000000E00318030C060C04E9
:1057A00004040600060006000600060006000604C3
:1057B0000C040C021803F0000000000000000000C0
:1057C00000000000000000007F008C010C030C03AF
:1057D0000C060C060C060C060C060C060C060C0639
:1057E0000C030C038C017F0000000000000000008F
:1057F0000000000000000000FF030603060406048A
:10580000060086008600FE008600860086000600F0
:10581000060406040602FF0300000000000000006A
:105820000000000000000000FF0306030604060459
:10583000060086008600FE008600860086000600C0
:105840000600060006001F00000000000000000027
:105850000000000000000000F00018010C020C0223
:1058600004020600060006000600C60F0603060333
:105870000C030C031803F0000000000000000000FF
:1058800000000000000000000F0F060606060606D6
:10589000060606060606FE070606060606060606AF
:1058A0000606060606060F0F0000000000000000B6
:1058B0000000000000000000FC03600060006000C9
:1058C00060006000600060006000600060006000D8
:1058D000600060006000FC030000000000000000A9
:1058E0000000000000000000F807C000C000C00079
:1058F000C000C000C000C000C000C000C000C000A8
:10590000C000C000C000C000C60066003C0000002F
:105910000000000000000000CF038601C600460022
:105920002600160036002E006E004600C6008600D7
:105930008601060106038F0700000000000000003A
:1059400000000000000000001F0006000600060026
:105950000600060006000600060006000600060017
:10596000060406040602FF03000000000000000019
:1059700000000000000000000707860386038E0376
:105980008E034E034E034A035A035A033A0332036B
:1059900032033203120387070000000000000000FA
:1059A00000000000000000008E0F0C021C021C0210
:1059B00034023402640264024402C4028402840396
:1059C0008403040304031F02000000000000000021
:1059D0000000000000000000F00098010C030C0221
:1059E0000606060606060606060606060606060657
:1059F0000C020C039801F000000000000000000001
:105A00000000000000000000FF0006030606060676
:105A10000606060606068603FE00060006000600C9
:105A20000600060006001F00000000000000000045
:105A30000000000000000000F00098010C030C02C0
:105A40000606060606060606060606060606760686
:105A50004C02CC039801F000800700030000000016
:105A60000000000000000000FF0106030606060615
:105A7000060606060603FE004600C60086008601EE
:105A80000603060306060F0E0000000000000000DB
:105A90000000000000000000F8020C0306020602ED
:105AA00006000E003C00F800E00380030007020639
:105AB000020606060C03F0010000000000000000D2
:105AC0000000000000000000FE0762046108610899
:105AD00060006000600060006000600060006000C6
